:020000040800F2
:10000000200400209D010008B7030008B303000886
:10001000B5030008E50100082508000800000000FD
:10002000000000000000000000000000F5040008CF
:10003000E70100080000000031040008AD050008D9
:10004000B7010008B7010008B7010008B7010008B0
:10005000B7010008B7010008AD020008B7010008A9
:10006000B7010008B7010008B7010008B701000890
:10007000B7010008B7010008B7010008B701000880
:10008000B7010008B7010008B7010008B701000870
:10009000B7010008B7010008B7010008B701000860
:1000A000B7010008B7010008B7010008B701000850
:1000B000B7010008B7010008B7010008B701000840
:1000C000B7010008B7010008B7010008B701000830
:1000D000B70100082906000865060008B7010008F6
:1000E000B7010008B7010008B7010008B701000810
:1000F000B7010008B7010008B7010008B701000800
:10010000B7010008B7010008B7010008B7010008EF
:10011000B7010008B7010008B7010008B7010008DF
:10012000B7010008B7010008B7010008B7010008CF
:10013000B7010008B7010008B7010008B7010008BF
:10014000B7010008B7010008B7010008B7010008AF
:10015000B7010008B7010008B7010008B70100089F
:10016000B7010008B7010008B7010008B70100088F
:10017000B7010008B7010008B7010008B70100087F
:10018000B7010008B7010008DFF80CD000F018F83C
:100190000048004745080008200400200648804722
:1001A00006480047FEE7FEE7FEE7FEE7FEE7FEE75C
:1001B000FEE7FEE7FEE7FEE7B1050008890100085B
:1001C000064C074D06E0E06840F0010394E80700A4
:1001D00098471034AC42F6D3FFF7DAFF580800080E
:1001E00078080008FEE77047FEB526482649012535
:1001F0000068B0FBF1F0B0F1807F42D220F07F4187
:100200004FF0E020491E4161204AF02182F8141D80
:10021000002484610721016101217F2000F00AF997
:100220000121102000F012F9C02000908DF8064046
:1002300002208DF804000320154E8DF80500694654
:10024000304600F055F807220621304600F0A1F8AC
:1002500007221146304600F09CF84FF4C06000F0D1
:10026000DDF825208DF808008DF809408DF80A404A
:100270008DF80B5002A800F09FF8064800F01AFA1B
:10028000FEBDFEE70C00002040420F000FE000E042
:10029000000402400010014001B50348009981604C
:1002A00081680029FCD108BD0000002010B50120A4
:1002B00000F00EF8002804D0BDE81040012000F046
:1002C00001B810BD0149086070470000143C0140AE
:1002D000064A014600201268044B0A4014331B688A
:1002E0000B4202D0002A00D001207047003C0140A0
:1002F000F0B50023012403270D6804FA03F215402A
:10030000954242D1D0F800C05E0007FA06F52CEA0B
:10031000050CC0F800C091F804C0D0F800E00CFA59
:1003200006FC4CEA0E0CC0F800C091F804C0BCF109
:10033000010F02D0BCF1020F1FD1D0F808C02CEA87
:10034000050CC0F808C091F805C0D0F808E00CFA18
:1003500006FC4CEA0E0CC0F808C0D0F804C02CEA29
:10036000020CC0F804C0426891F806C00CFA03FC05
:100370001FFA8CFC42EA0C024260C268AA43C260C7
:10038000CA79C568B2402A43C2605B1C102BB3D344
:10039000F0BD4B07DB0E9A40C90810B500EB810099
:1003A000016A0F249C40A1430162016A114301626A
:1003B00010BDFEE7FEE7704730B50F22C478017824
:1003C0000123FCB1144C246801F1E02104F4E06441
:1003D000C4F5E064C4F30724C4F10405E2404478A2
:1003E000AC408578154025432A0181F80024007827
:1003F00000F01F018B404009800000F1E020C0F8B0
:10040000003130BD01F01F0083404809800000F139
:10041000E020C0F8803130BD0CED00E00249084317
:1004200002490860704700000000FA050CED00E08A
:1004300070470000044A0029116801D0014300E020
:10044000814311607047000030380240044A00299F
:10045000116801D0014300E0814311607047000042
:100460004438024070B5204A1168204C11F00C014C
:1004700004D06610042903D0082903D004601BE0CF
:10048000066019E01849091F0B68C3F380550B6813
:1004900003F03F0315B1B6FBF3F301E0B4FBF3F354
:1004A0000C680968C4F388146343C1F30141491C13
:1004B0004900B3FBF1F1016011680F2303EA111148
:1004C0000B4B5C5C0168E14041601468072505EA5C
:1004D00094241C5D21FA04F48460126805EA523207
:1004E0009A5CD140C16070BD083802400024F4001D
:1004F00010000020704700000CB500202749019033
:1005000000900A6842F480320A604FF4A0630A68DF
:1005100002F400320092019A521C0192009A12B920
:10052000019A9A42F3D10A68920334D501200090CF
:100530001A484030026842F080520260184802684F
:1005400042F4804202601548083002680260026886
:1005500042F400420260026842F4A0520260031FAB
:10056000104A1A600A6842F080720A600A689201B2
:10057000FCD50D4A40F205611160016821F00301CC
:100580000160016841F0020101600168C1F381016D
:100590000229FAD10CBD00900CBD000000380240C9
:1005A0000070004008544007003C024000F02EB8A4
:1005B000124810B5016841F0010101600F4A0021A5
:1005C0000832116002680E4B1A400260031D0D4A8A
:1005D0001A60026822F48022026008480C30016030
:1005E000FFF78AFF08494FF0006008600648803036
:1005F000016841F47001016010BD00000038024044
:10060000FFFFF6FE1030002408ED00E00548016809
:10061000491C01608168002902D08168491E8160FF
:10062000704700000000002070B50D4C40F22551CD
:10063000204600F065F810B1204600F0EFF840F2D7
:1006400027752946204600F05BF8002806D0294689
:100650002046BDE87040002200F071B870BD000077
:100660000010014070B50D4C40F22551204600F0BD
:1006700047F810B1204600F0D1F840F2277529461E
:10068000204600F03DF8002806D029462046BDE867
:100690007040002200F053B870BD000000440040DC
:1006A0000029818902D041F4005101E021F4005178
:1006B000818170471FB5002104464FF4E13000905E
:1006C000ADF80810ADF804100C20ADF80610ADF828
:1006D0000C10ADF80A006946204600F049F80122E6
:1006E00040F22551204600F02AF8012240F22771FD
:1006F000204600F024F801212046FFF7D1FF1FBD5E
:1007000030B501F01F0201240025C1F3421304FAA1
:1007100002F2012B0FD0022B0FD0838A4FEA112156
:100720000088134204FA01F400EA040001D000B189
:100730000125284630BD8389F0E7038AEEE710B52E
:10074000C1F3421301F01F040121A140012B07D086
:10075000022B07D01430002A026805D00A4304E0B7
:100760000C30F8E71030F6E78A43026010BD000055
:100770007FB50446008A0D4620F44051E8880843BE
:100780002082A08941F20C618843A9882A891143FB
:100790006A8902431143A181A08A20F44071A8898B
:1007A0000843A0826846FFF75DFE1A48844202D0E3
:1007B0001948844201D1039800E00298A1890904F4
:1007C00000EBC00101EB0010296801D5490000E0F1
:1007D0008900B0FBF1F26420B2FBF0F109010B09D2
:1007E0006FF018056B4302EB8302A3891D044FF0E1
:1007F000320306D503EBC202B2FBF0F000F00700B3
:1008000005E003EB0212B2FBF0F000F00F0008432A
:1008100020817FBD00100140001401408088C0F39A
:1008200008007047FEE702E008C8121F08C1002A4E
:10083000FAD170477047002001E001C1121F002A61
:10084000FBD17047FFF7D0FC024A5068FFF724FD48
:10085000FBE70000000000207808000800000020EE
:10086000200000002608000898080008200000204A
:1008700000040000360800080000000010270000F7
:1008800000000000007A030A0000000001020304D7
:08089000010203040607080938
:040000050800018965
:00000001FF
