:020000040800F2
:10000000280500209D010008D9060008D506000833
:10001000D7060008F1040008090C000800000000E1
:10002000000000000000000000000000930800082D
:10003000F304000800000000550700084909000803
:10004000B7010008B7010008B7010008B7010008B0
:10005000B7010008B7010008B9050008B70100089A
:10006000B7010008B7010008B7010008B701000890
:10007000B7010008B7010008B7010008B701000880
:10008000B7010008B7010008B7010008B701000870
:10009000B7010008B7010008B7010008B701000860
:1000A000B7010008B7010008B7010008B701000850
:1000B000B7010008B7010008B7010008B701000840
:1000C000B7010008B7010008B7010008B701000830
:1000D000B7010008C5090008350A0008B701000883
:1000E000B7010008B7010008B7010008B701000810
:1000F000B7010008B7010008B7010008B701000800
:10010000B7010008B7010008B7010008B7010008EF
:10011000B7010008B7010008B7010008B7010008DF
:10012000B7010008B7010008B7010008B7010008CF
:10013000B7010008B7010008B7010008B7010008BF
:10014000B7010008B7010008B7010008B7010008AF
:10015000B7010008B7010008B7010008B70100089F
:10016000B7010008B7010008B7010008B70100088F
:10017000B7010008B7010008B7010008B70100087F
:10018000B7010008B7010008DFF80CD000F04AF80A
:1001900000480047D5100008280500200648804781
:1001A00006480047FEE7FEE7FEE7FEE7FEE7FEE75C
:1001B000FEE7FEE7FEE7FEE74D09000889010008BB
:1001C0002DE9F05F0546002092469B46884606468C
:1001D000814640241BE0284641464746224600F01F
:1001E00042F853465A46C01A914110D31146184658
:1001F000224600F029F82D1A67EB01084F462246E7
:100200000120002100F020F817EB00094E41201ECC
:10021000A4F10104DFDC484631462A464346BDE8E6
:10022000F09F0000064C074D06E0E06840F0010337
:1002300094E8070098471034AC42F6D3FFF7A8FFC4
:100240001811000838110008202A04DB203A00FAAF
:1002500002F1002070479140C2F1200320FA03F31D
:10026000194390407047202A04DB203A21FA02F01B
:100270000021704721FA02F3D040C2F120029140E0
:10028000084319467047000070B51D4D00244021F9
:10029000284600F01BFA8021284600F010FA0028BA
:1002A000F9D1FC2000F00AF9052000F07BF90020CC
:1002B00000F004F9052000F075F9012000F0FEF8C7
:1002C000052000F06FF9FF2000F0F8F844EA004440
:1002D000052000F067F9FF2000F0F0F844EA002460
:1002E000052000F05FF9FF2000F0E8F80443052046
:1002F00000F058F94021284600F0EAF9204670BD88
:100300000008024070B50F4D0E46044640212846B5
:1003100000F0DCF98021284600F0D1F90028F9D15D
:1003200004F00F0040F0500000F0C8F8002000F08A
:10033000C5F8304600F0C2F82846BDE870404021BC
:1003400000F0C6B90008024010B500F02BF80621F5
:100350000020FFF7D7FF00210220FFF7D3FFF02195
:100360000320FFF7CFFF0021BDE810400420FFF776
:10037000C9BF10B508280AD2082141EA0010C1B24D
:100380000120FFF7BFFFBDE81040FFF77DBF002051
:1003900010BD10B5FFF7EDFF010201D540F07F4021
:1003A00010BD00002DE9F04188B00121042000F0CB
:1003B000D3F901258DF804500024DFF8F8804FF4BC
:1003C00080778DF80740022600978DF80560694612
:1003D000404600F013F93946404600F077F9802096
:1003E00000908DF804408DF807506946404600F0B3
:1003F00005F90121042000F0AFF90121C80300F044
:10040000B7F98DF806404FF4E0508DF80560009084
:100410008DF807408DF804606946404600F0EEF81C
:100420008DF8064040208DF8056000908DF807405B
:100430008DF804506946404600F0E0F840214046FF
:1004400000F046F906220A21404600F028F906226B
:100450000C21404600F023F906220B21404600F013
:100460001EF9ADF80840381DADF80A00ADF810507F
:100470006802ADF812003820ADF81400ADF80C4059
:10048000ADF80E40ADF8164007200B4CADF8180043
:1004900002A9204600F0E1F90121204600F0C8F948
:1004A0003946404600F014F9384600F07BF808B0B1
:1004B000BDE8F08100080240003C004070B50B4CE4
:1004C00005460221204600F0BDF90028F9D0294652
:1004D000204600F0C0F90121204600F0B3F90028C1
:1004E000F9D0204600F0B5F9C0B270BD003C004024
:1004F000FEE77047FEB52648264901250068B0FB97
:10050000F1F0B0F1807F42D220F07F414FF0E02047
:10051000491E4161204AF02182F8141D00248461A3
:100520000721016101217F2000F016F9012110202F
:1005300000F02AF9C02000908DF8064002208DF8C6
:1005400004000320154E8DF805006946304600F082
:1005500055F807220621304600F0A1F8072211467F
:10056000304600F09CF84FF4C06000F0E9F8252018
:100570008DF808008DF809408DF80A408DF80B5071
:1005800002A800F0ABF8064800F07CFAFEBDFEE7DA
:100590001000002040420F000FE000E00004024085
:1005A0000010014001B5034800998160816800296D
:1005B000FCD108BD0000002010B5012000F00EF8AD
:1005C000002804D0BDE81040012000F001B810BDA3
:1005D0000149086070470000143C0140064A01468A
:1005E00000201268044B0A4014331B680B4202D0EF
:1005F000002A00D001207047003C0140F0B50023E4
:10060000012403270D6804FA03F21540954242D1F4
:10061000D0F800C05E0007FA06F52CEA050CC0F819
:1006200000C091F804C0D0F800E00CFA06FC4CEAD7
:100630000E0CC0F800C091F804C0BCF1010F02D04C
:10064000BCF1020F1FD1D0F808C02CEA050CC0F88D
:1006500008C091F805C0D0F808E00CFA06FC4CEA96
:100660000E0CC0F808C0D0F804C02CEA020CC0F888
:1006700004C0426891F806C00CFA03FC1FFA8CFC17
:1006800042EA0C024260C268AA43C260CA79C568E5
:10069000B2402A43C2605B1C102BB3D3F0BD4B07A2
:1006A000DB0E9A40C90810B500EB8100016A0F24E7
:1006B0009C40A1430162016A1143016210BD0246E0
:1006C000002012690A4200D0012070474183704720
:1006D00001837047FEE7FEE77047000030B50F2248
:1006E000C47801780123FCB1144C246801F1E021A5
:1006F00004F4E064C4F5E064C4F30724C4F1040521
:10070000E2404478AC408578154025432A0181F8C1
:100710000024007800F01F018B404009800000F1A8
:10072000E020C0F8003130BD01F01F0083404809CF
:10073000800000F1E020C0F8803130BD0CED00E019
:100740000249084302490860704700000000FA05AA
:100750000CED00E070470000044A0029116801D048
:10076000014300E0814311607047000030380240CF
:10077000044A0029116801D0014300E0814311605F
:100780007047000040380240044A0029116801D037
:10079000014300E08143116070470000443802408B
:1007A00070B5204A1168204C11F00C0104D066107D
:1007B000042903D0082903D004601BE0066019E077
:1007C0001849091F0B68C3F380550B6803F03F03FA
:1007D00015B1B6FBF3F301E0B4FBF3F30C68096861
:1007E000C4F388146343C1F30141491C4900B3FBBE
:1007F000F1F1016011680F2303EA11110B4B5C5CEE
:100800000168E14041601468072505EA94241C5DF5
:1008100021FA04F48460126805EA52329A5CD140ED
:10082000C16070BD083802400024F40014000020AC
:100830000029018802D041F0400101E021F040018F
:10084000018070470246002012890A4200D0012030
:100850007047808970478181704730B502884C8825
:1008600002F441530A88CD8822438C882C432243CA
:100870000C8922434C8922438C892243CC89224310
:100880001A430280828B22F400628283098A0182E9
:1008900030BD70470CB500202749019000900A68D0
:1008A00042F480320A604FF4A0630A6802F4003216
:1008B0000092019A521C0192009A12B9019A9A422E
:1008C000F3D10A68920334D5012000901A484030D1
:1008D000026842F0805202601848026842F4804286
:1008E00002601548083002680260026842F4004263
:1008F0000260026842F4A0520260031F104A1A60AC
:100900000A6842F080720A600A689201FCD50D4ABA
:1009100040F205611160016821F003010160016886
:1009200041F0020101600168C1F381010229FAD19D
:100930000CBD00900CBD000000380240007000406B
:1009400008544007003C024000F02EB8124810B591
:10095000016841F0010101600F4A00210832116075
:1009600002680E4B1A400260031D0D4A1A600268AD
:1009700022F48022026008480C300160FFF78AFFF1
:1009800008494FF00060086006488030016841F473
:100990007001016010BD000000380240FFFFF6FE4C
:1009A0001030002408ED00E005480168491C016092
:1009B0008168002902D08168491E8160704700006B
:1009C0000000002070B5184C40F22551204600F080
:1009D00086F8C8B1204600F00FF9144903460A789A
:1009E00013488518521C0A702B700A78024412F8BA
:1009F000022C0D2A08D10A78104410F8010C0A289C
:100A000002D100204870087040F227752946204620
:100A100000F065F8002806D029462046BDE8704061
:100A2000002200F07BB870BD001001400C000020D7
:100A30002800002070B50D4C40F22551204600F0F2
:100A40004EF810B1204600F0D7F840F2277529463D
:100A5000204600F044F8002806D029462046BDE88C
:100A60007040002200F05AB870BD00000044004001
:100A70000029818902D041F4005101E021F40051A4
:100A8000818170471FB5002104464FF4E13000908A
:100A9000ADF80810ADF804100C20ADF80610ADF854
:100AA0000C10ADF80A006946204600F04FF801220C
:100AB00040F22551204600F031F8012240F2277122
:100AC000204600F02BF801212046FFF7D1FF1FBD83
:100AD0000246002012880A4200D00120704730B53B
:100AE00001F01F0201240025C1F3421304FA02F2AF
:100AF000012B0FD0022B0FD0838A4FEA11210088DF
:100B0000134204FA01F400EA040001D000B1012507
:100B1000284630BD8389F0E7038AEEE710B5C1F3BC
:100B2000421301F01F040121A140012B07D0022B29
:100B300007D01430002A026805D00A4304E00C30C4
:100B4000F8E71030F6E78A43026010BD7FB504462F
:100B5000008A0D4620F44051E88808432082A0898D
:100B600041F20C618843A9882A8911436A890243AA
:100B70001143A181A08A20F44071A8890843A08272
:100B80006846FFF70DFE1A48844202D01948844295
:100B900001D1039800E00298A189090400EBC0018B
:100BA00001EB0010296801D5490000E08900B0FB85
:100BB000F1F26420B2FBF0F109010B096FF01805A6
:100BC0006B4302EB8302A3891D044FF0320306D569
:100BD00003EBC202B2FBF0F000F0070005E003EB0C
:100BE0000212B2FBF0F000F00F00084320817FBD3D
:100BF00000100140001401408088C0F308007047D5
:100C0000C1F3080181807047FEE700000FB4054B77
:100C100010B503A9044A029800F018F810BC5DF85A
:100C200014FB0000B11000082400002002E008C8F6
:100C3000121F08C1002AFAD170477047002001E056
:100C400001C1121F002AFBD1704700002DE9FF4FA0
:100C50008DB00F460546002606E025280BD0DDE9BD
:100C60000F1290476D1C761C28780028F5D111B022
:100C70003046BDE8F08F0024A246A1460122EC498F
:100C800000E0044315F8013F203B02FA03F008425C
:100C9000F7D128782A2810D06FF02F022878A0F1F9
:100CA0003001092914D80AEB8A0102EB410144F012
:100CB000020400EB010A6D1CF0E701CF5FEA000AB5
:100CC00003D544F40054CAF1000A44F002046D1C38
:100CD00028782E2817D115F8010F44F004042A288B
:100CE0000ED06FF02F022878A0F1300109290AD820
:100CF00009EB890102EB410100EB01096D1CF2E7F0
:100D000057F8049B6D1C28786C280FD006DC4C2803
:100D100017D068280DD06A2814D104E0742810D0A8
:100D20007A280FD10DE044F400140AE044F4801452
:100D300001E044F440146978814202D104F5801442
:100D40006D1C6D1C2A786E2A1FD00CDC632A31D0F2
:100D500004DC002A8BD0582A11D1A3E0642A68D081
:100D6000692A0CD165E0732A2ED004DC6F2A73D077
:100D7000702A04D19BE0752A6FD0782A6ED0104675
:100D8000DDE90F129047761C50E1C4F302500228AF
:100D900006D0032809D0042801CF09D0066045E118
:100DA00001CFF117C0E9006140E101CF06803DE1CC
:100DB00006703BE117F8040B8DF8000000208DF859
:100DC0000100EB46012003E057F804BB4FF0FF3071
:100DD00061074FF0000102D40DE008F101018846DF
:100DE00049450FDA8045F8DB1BF808100029F4D1DB
:100DF00008E008F1010188468142FADB1BF808107F
:100E00000029F6D1DDE90F23AAEB0800814621462F
:100E100000F036F9304400EB080604E0DDE90F127B
:100E20001BF8010B9047B8F10108F7D2214648465C
:100E3000F7E00A21C4F302534FF0000B0891022B94
:100E400004D001CFC117032B09D00AE0FF1D27F002
:100E50000707F7E8020108E032E01FE020E000B2F7
:100E6000C117042B01D140B2C117031E71F1000359
:100E700007DA4FF0000CD0EB0C006CEB01012D23D6
:100E800002E0230504D52B238DF82430012303E051
:100E9000E30701D02023F7E7984658E00A2110E045
:100EA00010210EE010204FF0000B08900CE01021F4
:100EB0004FF0000B44F004044FF00809089103E0E0
:100EC00008214FF0000B0891C4F30253022B04D009
:100ED00001CF0021032B06D006E0FF1D27F00707F6
:100EE000F7E8020103E080B2042B00D1C0B24FF05A
:100EF000000823072BD5702A07D0DDF820C08CF01E
:100F0000100C5CEA0B0C05D00EE040238DF8243069
:100F1000012308E050EA010306D030238DF8243085
:100F20008DF8252002239846DDF820C08CF0080CAF
:100F30005CEA0B0C0BD150EA010301D1630706D523
:100F400030238DF824304FF00108A9F10109582A07
:100F500004D038A20B9208AA0A920BE03AA2F9E751
:100F60005B46089AFFF72CF90B9B9B5C0A9A521E72
:100F70000A92137050EA0102F2D10A98ADEB000018
:100F800000F1200B600702D524F4803401E04FF01B
:100F90000109D94502DDA9EB0B0000E0002000EBC0
:100FA0000B0141440890AAEB010AE00306D4DDE9F5
:100FB0000F232146504600F063F806444FF0000925
:100FC00008E009A911F80900DDE90F12904709F1BD
:100FD0000109761CC145F4DBE0030CD5DDE90F23E4
:100FE0002146504600F04CF8064404E0DDE90F12BB
:100FF00030209047761C0899481E08900029F5DC9F
:1010000008E00A980A990078491C0A91DDE90F1254
:101010009047761CBBF10001ABF1010BF1DC2146DE
:101020005046DDE90F2300F019F806446D1C1BE65D
:1010300009280100303132333435363738396162AE
:101040006364656600000000303132333435363772
:101050003839414243444546000000002DE9F04143
:10106000044600251E461746880404D405E0394688
:101070002020B0476D1C641EF9D52846BDE8F081DC
:101080002DE9F041044600251E469046C80301D5CF
:10109000302700E02027880404D505E04146384683
:1010A000B0476D1C641EF9D52846BDE8F0810000EC
:1010B00070B5074D0446C1B22846FFF7A1FD402197
:1010C0002846FFF705FD0028F9D0204670BD000036
:1010D00000100140FFF70EFAFFF736F9074D084CF4
:1010E0000020FFF756F9014600232A4605A0FFF726
:1010F0008DFD6068FFF756FAF2E70000FFFF7F0002
:10110000000000204144433A253038582C2530381F
:10111000582C253038580A003811000800000020EB
:10112000280000002C0C0008601100082800002096
:10113000000500003C0C0008000000001027000023
:101140000000000000000000007A030A0000000018
:10115000010203040102030406070809000000005D
:040000050800018965
:00000001FF
