:020000040800F2
:10000000E8060020310200085B0A00084D090008DC
:10001000590A00082D0700082D0F000800000000F5
:10002000000000000000000000000000F90B0008C4
:100030001508000800000000D50A0008250D00087A
:100040005502000855020008550200085502000834
:100050005502000855020008550200085502000824
:100060005502000855020008550200085502000814
:100070005502000855020008550200085502000804
:1000800055020008550200085502000855020008F4
:1000900055020008550200085502000855020008E4
:1000A00055020008550200085502000855020008D4
:1000B00055020008550200085502000855020008C4
:1000C00055020008550200085502000855020008B4
:1000D00055020008550200089D0D00085502000851
:1000E0005502000855020008550200085502000894
:1000F0005502000855020008550200085502000884
:100100005502000855020008550200085502000873
:100110005502000855020008550200085502000863
:100120005502000855020008550200085502000853
:100130005502000855020008550200085502000843
:100140005502000855020008550200085502000833
:100150005502000855020008550200085502000823
:100160005502000855020008550200085502000813
:100170005502000855020008550200085502000803
:10018000550200085502000800F002F800F041F89E
:100190000AA090E8000C82448344AAF10107DA45E2
:1001A00001D100F036F8AFF2090EBAE80F0013F0F3
:1001B000010F18BFFB1A43F001031847B4180000E1
:1001C000D4180000103A24BF78C878C1FAD8520772
:1001D00024BF30C830C144BF04680C6070470000C1
:1001E0000023002400250026103A28BF78C1FBD840
:1001F000520728BF30C148BF0B607047782900F014
:100200009980002070471FB500F0DEFE1FBD10B5BD
:1002100010BD00F059FA1146FFF7F5FF00F0A2FEFD
:1002200000F077FA03B4FFF7F2FF03BC00F086FE9C
:100230000C48016841F4700101600B4880470B488D
:100240000047FEE7FEE7FEE7FEE7FEE7FEE7FEE724
:10025000FEE7FEE7FEE7000005480649064A074BB1
:100260007047000088ED00E0410D0008890100089A
:10027000E8000020E8060020E8020020E802002054
:10028000704710B54C1084EA530404D54042C1F1C4
:10029000000138BF491E1B4204D55242C3F100037E
:1002A00038BF5B1E00F012F914F0804F04D04042BA
:1002B000C1F1000138BF491E14F0004F04D0524272
:1002C000C3F1000338BF5B1E10BD00000FB404492A
:1002D00010B503AA029800F0C9F910BC5DF814FB30
:1002E0004000002070B5044685690068C10601D54C
:1002F000302600E02026C00707D070BDD4E90121D8
:1003000030469047206A401C20626D1EF6D570BDB5
:1003100070B5044685690078C00707D170BDD4E97F
:10032000012120209047206A401C20626D1EF6D5D6
:1003300070BD000070B504460D4621461068AFF34D
:1003400000802188090502D50F4A7A4402E00E4A4E
:100350007A440E32002104F1240305E000F00F0678
:100360000009965D5E54491C0028F7D120780023CF
:10037000000704D5702D02D009B1022311322046A6
:10038000BDE8704000F019B9E81600002DE9F05FF3
:10039000894604464FF0000ADFF824B1FB44C0F858
:1003A00020A02046E168884700287DD0252806D077
:1003B000D4E901219047206A401C2062F1E7002522
:1003C0005F462046E16888472028064607DB312E35
:1003D00005D2B81910F8200C08B10543F1E7A807B9
:1003E00001D525F00405C4F81CA00027C4F818A006
:1003F0002A2E09D0304600F09AFD38B304EB870866
:10040000303EC8F8186019E059F8041B204604EB88
:1004100087029161E1688847012F064618D1E0699B
:10042000002820DA25F020051DE0D8F8180000EBA0
:10043000800006EB40003038C8F818002046E1681C
:100440008847064600F073FD0028EED1012F0AD040
:100450002E2E08D12046E16888477F1C0646022FD1
:1004600045F02005C4DBA069002803DA404245F0CE
:100470000105A061E80701D025F01005A6B1A6F19D
:100480004100192802D8203645F400654A46314615
:10049000204625604D46FFF7B1FE60B1012807D028
:1004A000ED1D25F0070000E007E000F1080978E7FE
:1004B00005F1040975E730467AE7206ABDE8F09F48
:1004C000BE160000704770477047704753EA020C31
:1004D00000F069802DE9F04B4FF00006002B1FBFA4
:1004E000B3FA83F503FA05F424FA05F65E4012BF69
:1004F0001643B2FA82F502FA05F4C5F120051EBFD3
:1005000022FA05FC44EA0C04203556EA044C4FEA72
:10051000144418BF641C4FF000084FF000099042CB
:1005200071EB030C39D3002919BFB1FA81F701FA35
:1005300007F6B0FA80F700FA07F6C7F120071EBFEA
:1005400020FA07FC46EA0C062037B6FBF4FCA7EBC2
:100550000507103F07F01F0BCBF120060CFA0BFB31
:100560002CFA06F644BFB3460026202FA4BF5E46F1
:100570004FF0000B5BEA060C08BF4FF0010B19EBC4
:100580000B09ABFB027C48EB0608C01B06FB02CC48
:100590000BFB03CC71EB0C01C1E70B460246414655
:1005A0004846BDE8F08B13B54FF000004FF0000156
:1005B000AFF30080BDE81C4070472DE9F0470D46C1
:1005C00099469246044600F124080168880604D53D
:1005D000E06921F01001216000E00120A84201DD66
:1005E000471B00E00027A1697A1902EB0900081AED
:1005F000A0612078C00602D42046FFF773FE0026D3
:1006000008E0D4E901211AF806009047206A401C4E
:10061000761C20624E45F4DB2078C0060AD52046C1
:10062000FFF760FE06E0D4E9012130209047206A00
:10063000401C2062381EA7F10107F4DC07E0D4E972
:10064000012118F805009047206A401C2062281EEE
:10065000A5F10105F3DC2046FFF75AFE20780006DD
:1006600002D50220BDE8F0870120FBE7074B70B5FB
:100670000D467B4400F011F80446284600F020F8AF
:1006800010B14FF0FF3070BD204670BDCB080000A8
:1006900001694A1C02610878704700B58FB0CDE946
:1006A00001310021059105497944CDE90310114636
:1006B0006846FFF76BFE0FB000BD0000E5FFFFFFCF
:1006C000007B00F080007047754600F02BF8AE46C6
:1006D00005006946534620F00700854618B020B54E
:1006E000FFF7BAFDBDE820404FF000064FF00007CD
:1006F0004FF000084FF0000B21F00701AC46ACE8CA
:10070000C009ACE8C009ACE8C009ACE8C0098D4636
:10071000704710B50446AFF300802046BDE8104096
:10072000FFF780BD0048704784000020FEE700000E
:100730002DE9F0418046012188B0084600F0CCF94F
:100740000121480400F0D4F902208DF8150000249E
:100750008DF8164001268DF817601F4F0C258DF877
:100760001400049504A9384600F055F80722022128
:10077000384600F0A1F807220321384600F09CF823
:10078000E80100F09DF926208DF818008DF8194039
:100790008DF81A408DF81B6006A800F05FF9ADF8DF
:1007A0000440ADF80640ADF80840ADF80C400B4CE5
:1007B000CDF80080ADF80A506946204600F058FB9D
:1007C0000121204600F00BFB4021204600F004FBF5
:1007D00008B0BDE8F0810000000002400044004085
:1007E00010B5002400F0D8F900F082F8641C0C2C3D
:1007F000F8DB00F0D1F900F07BF805490860CA6821
:10080000801A0A6902444A604A691044886010BD2F
:10081000040000207047F0B50023012403270D6871
:1008200004FA03F21540954242D1D0F800C05E00B0
:1008300007FA06F52CEA050CC0F800C091F804C0D0
:10084000D0F800E00CFA06FC4CEA0E0CC0F800C030
:1008500091F804C0BCF1010F02D0BCF1020F1FD10E
:10086000D0F808C02CEA050CC0F808C091F805C003
:10087000D0F808E00CFA06FC4CEA0E0CC0F808C0F0
:10088000D0F804C02CEA020CC0F804C0426891F809
:1008900006C00CFA03FC1FFA8CFC42EA0C02426010
:1008A000C268AA43C260CA79C568B2402A43C2601E
:1008B0005B1C102BB3D3F0BD4B07DB0E9A40C9086D
:1008C00010B500EB8100016A0F249C40A143016236
:1008D000016A1143016210BD0246002012690A42FA
:1008E00000D00120704741837047018370470000AA
:1008F0002DE9F041144EC117034602460B25306026
:1009000056F82540844201DD204602E0944200DA98
:100910002246E31841EBE47106EB850454F8044CDD
:1009200046F825406D1EEBD1C417181A61EB04017F
:10093000801A61EBE2714FF00A024FF00003FFF7FB
:10094000A0FCBDE8F0810000540000200A214FF413
:10095000784302A2142000F065B800004861726478
:100960004661756C740000002DE9FF4F203A8B46FC
:100970000546824602F0FF090024DFF868802BE07C
:100980000C2905D0184A02EB091100260F5D16E06C
:10099000164A09EB490102EB8101F6E7F90701D09C
:1009A000039A03E0417829B1B8F802205946284655
:1009B00000F02AF86D1C7F08761CADB2F6B298F8EC
:1009C00000104046B6EB510FE8D30BF10100641C58
:1009D00055461FFA80FBE4B298F800108C42CFD342
:1009E000BDE8FF8F3C00002046140008D20F00082D
:1009F0000B4600B50146202000F026F819462120BC
:100A00005DF804EB00F020B810B51446FFF7F0FFD6
:100A10004FF0C041222008800148048010BD000032
:100A200000000260F0B51E4614460F46054607E07A
:100A3000334639462846FFF797FF0835ADB2641CA8
:100A40002278002AF4D1F0BD4FF0C0421080014856
:100A50000180704700000260FEE7704730B50F224A
:100A6000C47801780123FCB1144C246801F1E02121
:100A700004F4E064C4F5E064C4F30724C4F104059D
:100A8000E2404478AC408578154025432A0181F83E
:100A90000024007800F01F018B404009800000F125
:100AA000E020C0F8003130BD01F01F00834048094C
:100AB000800000F1E020C0F8803130BD0CED00E096
:100AC0000249084302490860704700000000FA0527
:100AD0000CED00E070470000044A0029116801D0C5
:100AE000014300E08143116070470000303802404C
:100AF000044A0029116801D0014300E081431160DC
:100B0000704700004038024070B5204A1168204C00
:100B100011F00C0104D06610042903D0082903D079
:100B200004601BE0066019E01849091F0B68C3F355
:100B300080550B6803F03F0315B1B6FBF3F301E0FA
:100B4000B4FBF3F30C680968C4F388146343C1F37E
:100B50000141491C4900B3FBF1F1016011680F2309
:100B600003EA11110B4B5C5C0168E14041601468C1
:100B7000072505EA94241C5D21FA04F484601268B8
:100B800005EA52329A5CD140C16070BD083802401B
:100B90000024F4004400002070B5164E00244021CB
:100BA0003046FFF7A0FE80213046FFF795FE002873
:100BB000F9D1002540213046FFF797FE640040211F
:100BC0003046FFF790FE80213046FFF785FE08B1E2
:100BD00044F001046D1C182DECDB40213046FFF77A
:100BE00084FE84F4000440213046FFF77CFE20465A
:100BF00070BD000000040240704700007CB5012178
:100C00000220FFF769FF8020002400908DF8044047
:100C100003208DF80500094D8DF8074069462846E8
:100C2000FFF7F9FD4020009001208DF804008DF8B9
:100C3000074069462846FFF7EEFD7CBD00040240F0
:100C40000CB50022314801920092016841F48031D4
:100C500001604FF4A043016801F400310091019953
:100C6000491C0191009911B901999942F3D1016888
:100C70008B03274947D501220092254A3832136851
:100C800043F080531360234A136843F440431360D6
:100C90000A680A600A6842F400420A600A6842F47C
:100CA000A0520A601C4A1388528843EA82120B1F22
:100CB00042F0E8621A60026842F0807202600268E4
:100CC0009201FCD5154B40F205621A600A6822F0C9
:100CD00003020A600A6842F002020A600A68C2F36C
:100CE0008102022AFAD10A6822F400020A60084A44
:100CF0000B497C321160016841F08061016001683C
:100D00000901FCD50CBD0092EDE70000003802405F
:100D1000083802400070004020000020003C0240E3
:100D2000804000300448016809B1491E0160034851
:100D300001680A310160704738000020000000207F
:100D4000124810B5016841F4700101601048016853
:100D500041F0010101600E4A002108321160026871
:100D60000C4B1A400260031D0B4A1A60026822F401
:100D70008022026006480C300160FFF761FF0349E2
:100D80004FF000608039086010BD000088ED00E081
:100D900000380240FFFFF6FE1030002470B50D4C05
:100DA00040F22551204600F02BF810B1204600F00B
:100DB000B5F840F227752946204600F021F80028B2
:100DC00006D029462046BDE87040002200F037B822
:100DD00070BD000000440040C943018070470029F5
:100DE000818902D041F4005101E021F40051818158
:100DF00070470246002012880A4200D00120704746
:100E000030B501F01F0201240025C1F3421304FA9A
:100E100002F2012B0FD0022B0FD0838A4FEA11214F
:100E20000088134204FA01F400EA040001D000B182
:100E30000125284630BD8389F0E7038AEEE710B527
:100E4000C1F3421301F01F040121A140012B07D07F
:100E5000022B07D01430002A026805D00A4304E0B0
:100E60000C30F8E71030F6E78A43026010BD00004E
:100E70007FB50446008A0D4620F44051E8880843B7
:100E80002082A08941F20C618843A9882A891143F4
:100E90006A8902431143A181A08A20F44071A88984
:100EA0000843A0826846FFF72FFE1A48844202D00A
:100EB0001948844201D1039800E00298A1890904ED
:100EC00000EBC00101EB0010296801D5490000E0EA
:100ED0008900B0FBF1F26420B2FBF0F109010B09CB
:100EE0006FF018056B4302EB8302A3891D044FF0DA
:100EF000320306D503EBC202B2FBF0F000F00700AC
:100F000005E003EB0212B2FBF0F000F00F00084323
:100F100020817FBD00100140001401408088C0F393
:100F200008007047C1F3080181807047FEE7303840
:100F30000A2801D201207047002070477047000046
:100F400070B5074D0446C1B22846FFF7EBFF4021BC
:100F50002846FFF74EFF0028F9D0204670BD00005C
:100F6000004400400EB5FFF749FEFFF715FEFFF7FE
:100F700037FC4FF4E130FFF7DBFB094CFFF70CFEC9
:100F80000546FFF7B5FC0246D4E90010A3698DE8D9
:100F90000B00294603A0A368FFF798F9EEE70000CD
:100FA00004000020573A253038582C253038582C6A
:100FB000253038582C253038582C253038582C25D9
:100FC0003034580A000000004FF04070E1EE100A83
:100FD000704700000000000000000000000000005A
:100FE0000404040404040004000000140A0A0000BD
:100FF000000000000000000014143F140A3F0A0A19
:10100000000000041E1505060C14150F0400000056
:1010100012150D0A142C2A1200000000040A0A1EE0
:101020001515093600000002020100000000000052
:10103000000000201008080808080810200000021E
:101040000408080808080804020000000004150E3F
:101050000E150400000000000404041F0404040032
:10106000000000000000000000000002020100007B
:101070000000001F00000000000000000000000051
:101080000000000200000010080808040402020228
:10109000010000000E1111111111110E00000000CD
:1010A000040604040404040E000000000E111108DC
:1010B0000402011F000000000E11100C1010110E90
:1010C00000000000080C0A0A091E081800000000B1
:1010D0001F01010F1010110E000000000E09010F7A
:1010E0001111110E000000001F090804040404047B
:1010F000000000000E11110E1111110E0000000071
:101100000E1111111E10120E00000000000004004C
:1011100000000004000000000000000400000004C3
:101120000400002010080402040810200000000041
:1011300000001F00001F0000000000020408102033
:1011400010080402000000000E111108040400043D
:10115000000000000E111915151D011E00000000F1
:1011600004040C0A0A1E1233000000000F12120EB3
:101170001212120F000000001E1101010101110ED8
:10118000000000000F1212121212120F00000000D5
:101190001F120A0E0A02121F000000001F120A0E80
:1011A0000A020207000000001C1201013911120C92
:1011B000000000003312121E121212330000000051
:1011C0001F0404040404041F000000003E08080873
:1011D000080808090700000037120A060A0A123731
:1011E00000000000070202020202223F000000008D
:1011F0001B1B1B1B15151515000000003B121616B6
:101200001A1A1217000000000E1111111111110EFF
:10121000000000000F12120E020202070000000080
:101220000E1111111117190E180000000F12120ED5
:101230000A121237000000001E1101060810110FDB
:10124000000000001F1504040404040E0000000048
:10125000331212121212120C000000003312120A82
:101260000A0C0404000000001515150E0A0A0A0AEB
:10127000000000001B0A0A04040A0A1B0000000008
:101280001B0A0A040404040E000000001F090804DD
:101290000402121F0000001C0404040404040404DB
:1012A0001C00000202020404080808100000000EDE
:1012B00008080808080808080E0000040A000000D2
:1012C000000000000000000000000000000000001E
:1012D000003F0004000000000000000000000000CB
:1012E0000000000C121C123C000000000302020E61
:1012F0001212120E000000000000001C1202021C5C
:10130000000000001810101C1212123C0000000017
:101310000000000C121E021C000000003804041E15
:101320000404041E000000000000003C120C021E19
:10133000221C00000302020E1212123700000000ED
:10134000040000060404040E000000000800000C65
:1013500008080808080700000302023A0A0E1237BC
:1013600000000000070404040404041F000000003F
:101370000000000F15151515000000000000000FFB
:1013800012121237000000000000000C1212120CA2
:10139000000000000000000F1212120E02070000F1
:1013A0000000001C1212121C103800000000001B6C
:1013B00006020207000000000000001E020C101EC2
:1013C000000000000004040E0404041800000000E3
:1013D0000000001B1212123C000000000000003749
:1013E000120A0C040000000000000015150E0A0A85
:1013F000000000000000001B0A040A1B000000009F
:1014000000000037120A0C04040300000000001E54
:101410000804041E0000001808080804080808084A
:10142000180008080808080808080808080800063E
:101430000404040804040404060002251800000043
:10144000000000000000000000000000000000009C
:101450000000000000000000000808080808080854
:1014600000001818000000486C2412000000000062
:101470000000000000000000002424247F1212124B
:101480007F12121200000000081C2A2A0A0C1828D9
:10149000282A2A1C080800000022251515152A589C
:1014A0005454542200000000000C1212120A762537
:1014B0002911916E000000060604030000000000E0
:1014C0000000000000000040201010080808080874
:1014D000081010204000000204080810101010101E
:1014E0001008080402000000000008086B1C1C6BB8
:1014F00008080000000000000000080808087F0835
:1015000008080800000000000000000000000000C3
:101510000000060604030000000000000000FE00BA
:1015200000000000000000000000000000000000BB
:101530000000060600000000804040202010100837
:101540000804040202000000001824424242424201
:10155000424224180000000000080E08080808088D
:101560000808083E00000000003C424242202010D3
:101570000804427E00000000003C42422018204047
:101580004042221C00000000002030282424222297
:101590007E20207800000000007E0202021A264011
:1015A0004042221C0000000000382402021A264299
:1015B0004242241800000000007E22221010080879
:1015C0000808080800000000003C42424224182499
:1015D0004242423C0000000000182442424264584B
:1015E0004040241C0000000000000000181800000B
:1015F00000001818000000000000000000080000B3
:101600000000000808040000004020100804020444
:101610000810204000000000000000007F000000D3
:101620007F0000000000000000020408102040209D
:101630001008040200000000003C42424640201016
:101640001000181800000000001C225A555555556E
:101650002D42221C00000000000808181414243C2D
:10166000224242E700000000001F2222221E2242E6
:101670004242221F00000000007C424201010101A1
:101680000142221C00000000001F2242424242424E
:101690004242221F00000000003F4212121E12129E
:1016A0000242423F00000000003F4212121E12128E
:1016B0000202020700000000003C22220101017129
:1016C0002122221C0000000000E7424242427E42EA
:1016D000424242E700000000003E080808080808EF
:1016E0000808083E00000000007C101010101010C8
:1016F00010101010110F0000007722120A0E0A12AB
:1017000012222277000000000007020202020202F9
:101710000202427F000000000077363636362A2A61
:101720002A2A2A6B0000000000E346464A4A525229
:101730005262624700000000001C224141414141C9
:101740004141221C00000000003F424242423E0252
:101750000202020700000000001C224141414141F9
:101760004D53321C60000000003F4242423E1212C4
:10177000222242C700000000007C424202041820DE
:101780004042423E00000000007F49080808080867
:101790000808081C0000000000E7424242424242A2
:1017A0004242423C0000000000E74242222424144E
:1017B0001418080800000000006B494949495555B4
:1017C000362222220000000000E7422424181818C4
:1017D000242442E7000000000077222214140808A5
:1017E0000808081C00000000007E212010100804DA
:1017F0000442423F0000007808080808080808086A
:10180000080808087800000002020404080808100C
:10181000102020204040001E10101010101010103A
:10182000101010101E0000384400000000000000DE
:1018300000000000000000000000000000000000A8
:101840000000000000FF000608000000000000008B
:10185000000000000000000000000000003C427892
:10186000444242FC0000000000030202021A264229
:101870004242261A00000000000000000038440226
:1018800002024438000000000060404040784442BA
:10189000424264D80000000000000000003C427E8C
:1018A0000202423C0000000000F08808087E0808A0
:1018B0000808083E0000000000000000007C222212
:1018C0001C023C42423C000000030202023A464233
:1018D000424242E700000000000C0C00000E080825
:1018E0000808083E000000000030300000382020CA
:1018F00020202020221E0000000302020272120A91
:101900001612227700000000000E080808080808D8
:101910000808083E0000000000000000007F9292CE
:10192000929292B70000000000000000003B464287
:10193000424242E70000000000000000003C42423A
:101940004242423C0000000000000000001B264212
:101950004242221E020700000000000000784442BC
:101960004242447840E000000000000000774C0450
:101970000404041F0000000000000000007C42027C
:101980003C40423E0000000000000008083E0808FD
:101990000808083000000000000000000063424218
:1019A000424262DC000000000000000000E7422428
:1019B00024140808000000000000000000EB494962
:1019C0005555222200000000000000000076241877
:1019D0001818246E000000000000000000E74224F8
:1019E000241418080807000000000000007E2210E0
:1019F0000808447E000000C0202020202010202065
:101A000020202020C00010101010101010101010F6
:101A10001010101010100006080808080810080818
:101A20000808080806000C32C20000000000000090
:101A30000000000000003031323334353637383999
:101A4000414243444546403058003031323334350A
:101A50003637383961626364656640307800040067
:101A6000000800000000000000020001000010005B
:101A7000901A00080000002054000000C401000873
:101A8000E41A00085400002094060000E001000859
:101A90000000000000000000000000000000000046
:101AA00065AB9100B2DC9300E59EA9002800000020
:101AB00008005001007A030A000000000000000046
:101AC00001020304060708090000000000000000EE
:101AD00000000000000000000102030401020304F2
:041AE00006070809E4
:040000050800018965
:00000001FF
