:020000040800F2
:10000000780400209D010008B5060008B10600082C
:10001000B3060008E7020008810B0008000000009A
:100020000000000000000000000000000D080008B3
:10003000970300080000000031070008C508000809
:10004000B7010008B7010008B7010008B7010008B0
:10005000B7010008B70100085D040008B7010008F7
:10006000B7010008B7010008B7010008B701000890
:10007000B7010008B7010008B7010008B701000880
:10008000B7010008B7010008B7010008B701000870
:10009000B7010008B7010008B7010008B701000860
:1000A000B7010008B7010008B7010008B701000850
:1000B000B7010008B7010008B7010008B701000840
:1000C000B7010008B7010008B7010008B701000830
:1000D000B701000841090008AD090008B701000890
:1000E000B7010008B7010008B7010008B701000810
:1000F000B7010008B7010008B7010008B701000800
:10010000B7010008B7010008B7010008B7010008EF
:10011000B7010008B7010008B7010008B7010008DF
:10012000B7010008B7010008B7010008B7010008CF
:10013000B7010008B7010008B7010008B7010008BF
:10014000B7010008B7010008B7010008B7010008AF
:10015000B7010008B7010008B7010008B70100089F
:10016000B7010008B7010008B7010008B70100088F
:10017000B7010008B7010008B7010008B70100087F
:10018000B7010008B7010008DFF80CD000F07AF8DA
:10019000004800474D1000087804002006488047BA
:1001A00006480047FEE7FEE7FEE7FEE7FEE7FEE75C
:1001B000FEE7FEE7FEE7FEE7C90800088901000840
:1001C0002DE9F0410024061B254671F1000605DAF1
:1001D00001240027D0EB070067EB0101161E73F125
:1001E000000605DA0027D2EB0702012567EB0303BF
:1001F00000F017F886460E4617469C46AC4204D0DF
:100200000025D0EB050E65EB010624B10020D2EBF2
:10021000000760EB030C704631463A466346BDE882
:10022000F0812DE9F05F0546002092469B46884606
:100230000646814640241BE0284641464746224662
:1002400000F041F853465A46C01A914110D3114666
:100250001846224600F028F82D1A67EB01084F4691
:1002600022460120002100F01FF817EB00094E4143
:10027000201EA4F10104DFDC484631462A464346ED
:10028000BDE8F09F064C074D06E0E06840F0010332
:1002900094E8070098471034AC42F6D3FFF778FF94
:1002A000EC1000080C110008202A04DB203A00FAA8
:1002B00002F1002070479140C2F1200320FA03F3BD
:1002C000194390407047202A04DB203A21FA02F0BB
:1002D0000021704721FA02F3D040C2F12002914080
:1002E000084319467047FEE7044A0123834010681B
:1002F00009B1184300E09843106070470074004053
:1003000010B5012186B0084600F014FA0121480713
:1003100000F01CFA3020049003208DF81400002413
:100320008DF8174004A9084800F0BAF80194009429
:1003300069460020039400F009F801210020FFF72E
:10034000D3FF06B010BD00000000024030B5084CDD
:10035000236840F6FE7282409343D1E900252A4388
:10036000D1E902510D432A4382401A43226030BD35
:1003700000740040034A08B5104408300090016042
:1003800008BD0000007400404FF6FF7101EA001143
:100390000020FFF7EFBF7047FEB52648264901252C
:1003A0000068B0FBF1F0B0F1807F42D220F07F41D5
:1003B0004FF0E020491E4161204AF02182F8141DCF
:1003C000002484610721016101217F2000F0B2F93E
:1003D0000121102000F0C6F9C02000908DF80640E1
:1003E00002208DF804000320154E8DF805006946A3
:1003F000304600F055F807220621304600F0A1F8FB
:1004000007221146304600F09CF84FF4C06000F01F
:1004100085F925208DF808008DF809408DF80A40EF
:100420008DF80B5002A800F047F9064800F0E6FAF4
:10043000FEBDFEE71800002040420F000FE000E084
:10044000000402400010014001B503480099C1605A
:10045000C1680029FCD108BD0000002010B50120B2
:1004600000F00EF8002804D0BDE81040012000F094
:1004700001B810BD0149086070470000143C0140FC
:10048000064A014600201268044B0A4014331B68D8
:100490000B4202D0002A00D001207047003C0140EE
:1004A000F0B50023012403270D6804FA03F2154078
:1004B000954242D1D0F800C05E0007FA06F52CEA5A
:1004C000050CC0F800C091F804C0D0F800E00CFAA8
:1004D00006FC4CEA0E0CC0F800C091F804C0BCF158
:1004E000010F02D0BCF1020F1FD1D0F808C02CEAD6
:1004F000050CC0F808C091F805C0D0F808E00CFA67
:1005000006FC4CEA0E0CC0F808C0D0F804C02CEA77
:10051000020CC0F804C0426891F806C00CFA03FC53
:100520001FFA8CFC42EA0C024260C268AA43C26015
:10053000CA79C568B2402A43C2605B1C102BB3D392
:10054000F0BD4B07DB0E9A40C90810B500EB8100E7
:10055000016A0F249C40A1430162016A11430162B8
:1005600010BD0246002012690A4200D001207047E7
:10057000418370470183704710B5002400F066F88E
:1005800000F014F8641C0C2CF8DB00F05FF800F0AD
:100590000DF80549C8600A68801A4A6802440A6171
:1005A0008A681044486110BD1C0000202DE9F0410C
:1005B000144EC117034602460B25306056F82540FD
:1005C000844201DD204602E0944200DA2246E3182C
:1005D00041EBE47106EB850454F8044C46F82540E1
:1005E0006D1EEBD1C417181A61EB0401801A61EB80
:1005F000E2714FF00A024FF00003FFF7E1FDBDE8A2
:10060000F0810000480000207CB50121082000F0A6
:1006100091F801208DF80400009000248DF8064028
:1006200003208DF80500084D8DF8074069462846DF
:10063000FFF736FF022000908DF8044069462846F7
:10064000FFF72EFF7CBD0000000C024070B5174E76
:10065000002401213046FFF78BFF02213046FFF7CF
:1006600080FF0028F9D1002501213046FFF782FFE5
:1006700064000120FFF7E8FE01213046FFF778FF14
:1006800002213046FFF76DFF08B144F001046D1CF4
:10069000182DE9DB01213046FFF76CFF84F40004DC
:1006A00001213046FFF764FF204670BD000C024078
:1006B000FEE7FEE77047000030B50F22C4780178EE
:1006C0000123FCB1144C246801F1E02104F4E0643E
:1006D000C4F5E064C4F30724C4F10405E24044789F
:1006E000AC408578154025432A0181F80024007824
:1006F00000F01F018B404009800000F1E020C0F8AD
:10070000003130BD01F01F0083404809800000F136
:10071000E020C0F8803130BD0CED00E00249084314
:1007200002490860704700000000FA050CED00E087
:1007300070470000044A0029116801D0014300E01D
:10074000814311607047000030380240044A00299C
:10075000116801D0014300E081431160704700003F
:1007600040380240044A0029116801D0014300E0EA
:1007700081431160704700004438024070B5204A40
:100780001168204C11F00C0104D06610042903D02C
:10079000082903D004601BE0066019E01849091F0E
:1007A0000B68C3F380550B6803F03F0315B1B6FB2C
:1007B000F3F301E0B4FBF3F30C680968C4F38814A5
:1007C0006343C1F30141491C4900B3FBF1F10160EE
:1007D00011680F2303EA11110B4B5C5C0168E140C7
:1007E00041601468072505EA94241C5D21FA04F48D
:1007F0008460126805EA52329A5CD140C16070BDD3
:10080000083802400024F400340000207047000043
:100810000CB500202749019000900A6842F480320C
:100820000A604FF4A0630A6802F400320092019A51
:10083000521C0192009A12B9019A9A42F3D10A68A5
:10084000920334D5012000901A484030026842F0EB
:10085000805202601848026842F4804202601548E3
:10086000083002680260026842F4004202600268D6
:1008700042F4A0520260031F104A1A600A6842F054
:1008800080720A600A689201FCD50D4A40F2056147
:100890001160016821F003010160016841F002016B
:1008A00001600168C1F381010229FAD10CBD0090F9
:1008B0000CBD0000003802400070004008544007A2
:1008C000003C024000F02EB8124810B5016841F01B
:1008D000010101600F4A00210832116002680E4BCD
:1008E0001A400260031D0D4A1A60026822F4802239
:1008F000026008480C300160FFF78AFF08494FF09A
:100900000060086006488030016841F470010160B1
:1009100010BD000000380240FFFFF6FE103000243A
:1009200008ED00E005484168491C4160C1680029A4
:1009300002D0C168491EC16070470000000000205D
:1009400070B5174C40F22551204600F084F8B0B144
:10095000204600F00DF91349C3B24A68521C4A60A0
:10096000088818434FF6FF7303EA00200880022A24
:1009700005D1820A01D10C4A10800020486040F263
:1009800027752946204600F066F8002806D029463B
:100990002046BDE87040002200F07CB870BD000029
:1009A00000100140100000200000002070B50D4C28
:1009B00040F22551204600F04EF810B1204600F0DC
:1009C000D7F840F227752946204600F044F8002861
:1009D00006D029462046BDE87040002200F05AB8F3
:1009E00070BD0000004400400029818902D041F41C
:1009F000005101E021F40051818170471FB50021B1
:100A000004464FF4E1300090ADF80810ADF8041042
:100A10000C20ADF80610ADF80C10ADF80A006946D0
:100A2000204600F04FF8012240F22551204600F008
:100A300031F8012240F22771204600F02BF8012105
:100A40002046FFF7D1FF1FBD0246002012880A4250
:100A500000D00120704730B501F01F0201240025AD
:100A6000C1F3421304FA02F2012B0FD0022B0FD074
:100A7000838A4FEA11210088134204FA01F400EA44
:100A8000040001D000B10125284630BD8389F0E77C
:100A9000038AEEE710B5C1F3421301F01F040121F0
:100AA000A140012B07D0022B07D01430002A026886
:100AB00005D00A4304E00C30F8E71030F6E78A432B
:100AC000026010BD7FB50446008A0D4620F44051F7
:100AD000E88808432082A08941F20C618843A988F4
:100AE0002A8911436A8902431143A181A08A20F413
:100AF0004071A8890843A0826846FFF73FFE1A4864
:100B0000844202D01948844201D1039800E002983F
:100B1000A189090400EBC00101EB0010296801D58F
:100B2000490000E08900B0FBF1F26420B2FBF0F173
:100B300009010B096FF018056B4302EB8302A389CF
:100B40001D044FF0320306D503EBC202B2FBF0F0F6
:100B500000F0070005E003EB0212B2FBF0F000F03A
:100B60000F00084320817FBD0010014000140140A8
:100B70008088C0F308007047C1F308018180704786
:100B8000FEE700000FB4054B10B503A9044A029814
:100B900000F018F810BC5DF814FB000029100008E4
:100BA0004400002002E008C8121F08C1002AFAD140
:100BB00070477047002001E001C1121F002AFBD1DD
:100BC000704700002DE9FF4F8DB00F460546002607
:100BD00006E025280BD0DDE90F1290476D1C761C2E
:100BE00028780028F5D111B03046BDE8F08F0024F8
:100BF000A246A1460122EC4900E0044315F8013F5A
:100C0000203B02FA03F00842F7D128782A2810D0B6
:100C10006FF02F022878A0F13001092914D80AEBCF
:100C20008A0102EB410144F0020400EB010A6D1C51
:100C3000F0E701CF5FEA000A03D544F40054CAF19B
:100C4000000A44F002046D1C28782E2817D115F8EC
:100C5000010F44F004042A280ED06FF02F022878E8
:100C6000A0F1300109290AD809EB890102EB410101
:100C700000EB01096D1CF2E757F8049B6D1C287806
:100C80006C280FD006DC4C2817D068280DD06A28B5
:100C900014D104E0742810D07A280FD10DE044F468
:100CA00000140AE044F4801401E044F4401469782C
:100CB000814202D104F580146D1C6D1C2A786E2AC5
:100CC0001FD00CDC632A31D004DC002A8BD0582AD8
:100CD00011D1A3E0642A68D0692A0CD165E0732A97
:100CE0002ED004DC6F2A73D0702A04D19BE0752AC1
:100CF0006FD0782A6ED01046DDE90F129047761C2F
:100D000050E1C4F30250022806D0032809D0042879
:100D100001CF09D0066045E101CFF117C0E90061BC
:100D200040E101CF06803DE106703BE117F8040B7E
:100D30008DF8000000208DF80100EB46012003E053
:100D400057F804BB4FF0FF3061074FF0000102D4A9
:100D50000DE008F10101884649450FDA8045F8DBCE
:100D60001BF808100029F4D108E008F101018846B9
:100D70008142FADB1BF808100029F6D1DDE90F23C8
:100D8000AAEB08008146214600F036F9304400EB1A
:100D9000080604E0DDE90F121BF8010B9047B8F1DB
:100DA0000108F7D221464846F7E00A21C4F302536E
:100DB0004FF0000B0891022B04D001CFC117032B79
:100DC00009D00AE0FF1D27F00707F7E8020108E055
:100DD00032E01FE020E000B2C117042B01D140B285
:100DE000C117031E71F1000307DA4FF0000CD0EBBE
:100DF0000C006CEB01012D2302E0230504D52B230D
:100E00008DF82430012303E0E30701D02023F7E726
:100E1000984658E00A2110E010210EE010204FF013
:100E2000000B08900CE010214FF0000B44F004047C
:100E30004FF00809089103E008214FF0000B0891DA
:100E4000C4F30253022B04D001CF0021032B06D0A0
:100E500006E0FF1D27F00707F7E8020103E080B274
:100E6000042B00D1C0B24FF0000823072BD5702A05
:100E700007D0DDF820C08CF0100C5CEA0B0C05D01C
:100E80000EE040238DF82430012308E050EA0103EE
:100E900006D030238DF824308DF825200223984683
:100EA000DDF820C08CF0080C5CEA0B0C0BD150EA8A
:100EB000010301D1630706D530238DF824304FF0AC
:100EC0000108A9F10109582A04D038A20B9208AAF6
:100ED0000A920BE03AA2F9E75B46089AFFF7A1F9FC
:100EE0000B9B9B5C0A9A521E0A92137050EA0102F5
:100EF000F2D10A98ADEB000000F1200B600702D59B
:100F000024F4803401E04FF00109D94502DDA9EB5A
:100F10000B0000E0002000EB0B0141440890AAEB1D
:100F2000010AE00306D4DDE90F232146504600F014
:100F300063F806444FF0000908E009A911F8090018
:100F4000DDE90F12904709F10109761CC145F4DB78
:100F5000E0030CD5DDE90F232146504600F04CF8A4
:100F6000064404E0DDE90F1230209047761C089912
:100F7000481E08900029F5DC08E00A980A990078D4
:100F8000491C0A91DDE90F129047761CBBF1000164
:100F9000ABF1010BF1DC21465046DDE90F2300F0F7
:100FA00019F806446D1C1BE6092801003031323364
:100FB0003435363738396162636465660000000095
:100FC000303132333435363738394142434445467F
:100FD000000000002DE9F041044600251E4617469A
:100FE000880404D405E039462020B0476D1C641EF7
:100FF000F9D52846BDE8F0812DE9F04104460025E9
:101000001E469046C80301D5302700E020278804FB
:1010100004D505E041463846B0476D1C641EF9D53D
:101020002846BDE8F081000070B5074D0446C1B206
:101030002846FFF7A1FD40212846FFF705FD0028BF
:10104000F9D0204670BD0000001001401CB5FFF72C
:10105000A3F9FFF7D9FAFFF78FFAFFF751F900204C
:10106000FFF792F940F2FF30FFF78EF9124C134F61
:10107000DFF84C80DFF84C904FF6FF762088B042C6
:1010800005D02088C0F30900FFF77EF92680FFF71E
:10109000DDFA0546FFF78AFA02463968D8F80000FB
:1010A000CDE90001294608A0D9F80030FFF76AFD14
:1010B000A068FFF7C9F9E1E7000000202800002040
:1010C0002C000020300000205745494748543A255D
:1010D0003038582C253038582C253038582C2530AD
:1010E00038582C253038580A000000000C11000830
:1010F0000000002048000000A40B00085411000864
:101100004800002030040000B40B0008FFFF00007E
:101110000000000010270000000000000000000098
:1011200000000000007A030A7C4C870050E589002B
:10113000D1738C00000000000000000000000000DF
:10114000000000000102030401020304060708096D
:04115000000000009B
:040000050800018965
:00000001FF
