:020000040800F2
:10000000F00600204D020008C3240008511A000821
:10001000C124000829170008F92900080000000081
:100020000000000000000000000000007926000829
:100030000D180008000000003D250008D127000829
:1000400071020008710200087102000871020008C4
:1000500071020008710200087102000871020008B4
:1000600071020008710200087102000871020008A4
:100070007102000871020008710200087102000894
:100080007102000871020008710200087102000884
:100090007102000871020008710200087102000874
:1000A0007102000871020008710200087102000864
:1000B0007102000871020008710200087102000854
:1000C0007102000871020008710200087102000844
:1000D0007102000849280008710200087102000836
:1000E0007102000871020008710200087102000824
:1000F0007102000871020008710200087102000814
:100100007102000871020008710200087102000803
:1001100071020008710200087102000871020008F3
:1001200071020008710200087102000871020008E3
:1001300071020008710200087102000871020008D3
:1001400071020008710200087102000871020008C3
:1001500071020008710200087102000871020008B3
:1001600071020008710200087102000871020008A3
:100170007102000871020008710200087102000893
:10018000710200087102000800F002F800F04FF858
:100190000AA090E8000C82448344AAF10107DA45E2
:1001A00001D100F044F8AFF2090EBAE80F0013F0E5
:1001B000010F18BFFB1A43F0010318474C3700002A
:1001C0006C370000103A24BF78C878C1FAD85207BB
:1001D00024BF30C830C144BF04680C6070470000C1
:1001E0000023002400250026103A28BF78C1FBD840
:1001F000520728BF30C148BF0B607047662902F024
:10020000DB85642900F0BE80782900F0F7800020AB
:1002100070471FB502F0CBFD00F04CFD040000203C
:10022000002102F037FDE0601FBD10B510BD00F0E9
:1002300045FE1146FFF7EDFF02F024FC00F063FEDF
:1002400003B4FFF7F2FF03BC02F0F6FB0C480168B1
:1002500041F4700101600B4880470B480047FEE7FE
:10026000FEE7FEE7FEE7FEE7FEE7FEE7FEE7FEE766
:10027000FEE7000005480649064A074B70470000A4
:1002800088ED00E0ED27000889010008F00000205B
:10029000F0060020F0020020F0020020704710B5A8
:1002A0004C1084EA530404D54042C1F1000138BF28
:1002B000491E1B4204D55242C3F1000338BF5B1EE6
:1002C00000F0BFF914F0804F04D04042C1F10001AA
:1002D00038BF491E14F0004F04D05242C3F100034E
:1002E00038BF5B1E10BD00000FB4044910B503AA4F
:1002F000029800F0ABFC10BC5DF814FB4C00002031
:100300000FB41CB50C0007AA009001D02044401E79
:10031000074B7B4469460190069800F076FC002C60
:1003200003D06946002000F083FC1CBC5DF814FB80
:100330002509000070B5044685690068C10601D52D
:10034000302600E02026C00707D070BDD4E9012187
:1003500030469047206A401C20626D1EF6D570BD65
:1003600070B5044685690078C00707D170BDD4E92F
:10037000012120209047206A401C20626D1EF6D586
:1003800070BD00002DE9F041064600241068752973
:10039000314616A510D0AFF30080002802DA4042A3
:1003A00013A507E031688A0701D512A502E04907C5
:1003B00004D511A5012401E0AFF3008000210A2239
:1003C00006F1240709E0B0FBF2FCB0FBF2F302FBFC
:1003D0001C00303078541846491C0028F3D12346BD
:1003E0002A463046BDE8F04100F0A2B90000000006
:1003F0002D0000002B0000002000000070B5044616
:100400000D4621461068AFF300802188090502D50A
:100410000F4A7A4402E00E4A7A440E32002104F177
:10042000240305E000F00F060009965D5E54491CA8
:100430000028F7D120780023000704D5702D02D0C2
:1004400009B1022311322046BDE8704000F070B9B6
:10045000223400002DE9F05F894604464FF0000A7F
:10046000DFF874B1FB44C0F820A02046E16888475B
:10047000002874D0252806D0D4E901219047206AAD
:10048000401C2062F1E700265F462046E16888476D
:100490002028054607DB312D05D2781910F8200CED
:1004A00008B10643F1E7B00701D526F00406C4F809
:1004B0001CA00027C4F818A02A2D09D0284602F055
:1004C000B4FA38B304EB8708303DC8F8185019E087
:1004D00059F8041B204604EB87029161E1688847C4
:1004E000012F054618D1E069002820DA26F0200601
:1004F0001DE0D8F8180000EB800005EB4000303814
:10050000C8F818002046E1688847054602F08DFAD1
:100510000028EED1012F0AD02E2D08D12046E16807
:1005200088477F1C0546022F46F02006C4DBA069E1
:10053000002803DA404246F00106A061F00701D02E
:1005400026F010066C2D0BD0682D09D04C2D39D01B
:100550006A2D35D0742D35D07A2D33D016E038E0A1
:10056000E1682F4620468847B842054609D16C2FDE
:1005700026D04FF48060E168064320468847054650
:1005800004E06C2F1AD04FF4807006430DB3A5F130
:100590004100192802D8203546F400664A4629460B
:1005A000204626604E46FFF729FE80B101280BD079
:1005B000F61D26F0070000F1080956E74020E4E7A1
:1005C0008020D8E70020D6E706F104094DE7284649
:1005D00052E7206ABDE8F09FF833000002F0FF0305
:1005E00043EA032242EA024200F044BB4FF0000219
:1005F00000B5134694469646203922BFA0E80C5019
:10060000A0E80C50B1F12001BFF4F7AF090728BFF3
:10061000A0E80C5048BF0CC05DF804EB890028BF6F
:1006200040F8042B08BF704748BF20F8022B11F098
:10063000804F18BF00F8012B704770477047704714
:10064000704753EA020C00F069802DE9F04B4FF03F
:100650000006002B1FBFB3FA83F503FA05F424FA52
:1006600005F65E4012BF1643B2FA82F502FA05F4AF
:10067000C5F120051EBF22FA05FC44EA0C04203512
:1006800056EA044C4FEA144418BF641C4FF00008AB
:100690004FF00009904271EB030C39D3002919BFC8
:1006A000B1FA81F701FA07F6B0FA80F700FA07F617
:1006B000C7F120071EBF20FA07FC46EA0C062037C8
:1006C000B6FBF4FCA7EB0507103F07F01F0BCBF1BF
:1006D00020060CFA0BFB2CFA06F644BFB3460026A4
:1006E000202FA4BF5E464FF0000B5BEA060C08BF4C
:1006F0004FF0010B19EB0B09ABFB027C48EB060832
:10070000C01B06FB02CC0BFB03CC71EB0C01C1E759
:100710000B46024641464846BDE8F08B13B54FF004
:1007200000004FF00001AFF30080BDE81C407047AF
:100730002DE9F0470D4699469246044600F12408FB
:100740000168880604D5E06921F01001216000E00D
:100750000120A84201DD471B00E00027A1697A19AA
:1007600002EB0900081AA0612078C00602D42046D6
:10077000FFF7E0FD002608E0D4E901211AF80600A1
:100780009047206A401C761C20624E45F4DB20789E
:10079000C0060AD52046FFF7CDFD06E0D4E90121C9
:1007A00030209047206A401C2062381EA7F10107C4
:1007B000F4DC07E0D4E9012118F805009047206A2D
:1007C000401C2062281EA5F10105F3DC2046FFF73E
:1007D000C7FD2078000602D50220BDE8F087012081
:1007E000FBE770472DE9FF4F0C461E464FF0FF37E1
:1007F0008BB0D2E90001DDF860800A908A46C1F32F
:100800000A5505B93D46002108464FF00000BAF1EF
:10081000000F00F4400005DA00EB80004FF44001C7
:1008200001EA50004FEA9059B9F1010F00DDB946D5
:100830000A9850EA4A000ED044F61050A5F2FF354F
:1008400045432F14B8F1000F1ED07542291E1EDD3E
:10085000C9F100021CE0B8F1010F4FF0000001D017
:10086000302103E0F24305E02154401CB042FBDBA1
:1008700030460022002121540B99C1F80880C1E9BB
:1008800000200FB0BDE8F08FBD1B6D1CDEE74A46AF
:1008900000DA694206A800F097FA06AB93E8070071
:1008A00003AB83E8070050460A9900F075FB8DE81A
:1008B0000700A0F500501F3800900398002D0ADDB6
:1008C00042F21F014A460844002303A903906846E8
:1008D00000F0DEFD09E0A0F500504A461F38002375
:1008E00003A90390684600F0E8FD8DE807000004C6
:1008F000000C03D04FF0FF30410800E01046B8F183
:10090000000F03D00022009215461EE0751E05D48C
:1009100000F0D4F9303262556D1EF9D5B34601228C
:10092000084302D000227F1C04E02078302801D147
:1009300000227F1E002A099784D01DE0112D07DABE
:1009400000F0BCF9303262556D1C50EA0102F5D15D
:10095000084302D00098C8B10EE00021681E05E0EF
:10096000235C625C63542254401E491C8142F7DBC5
:10097000AB46A81B401E0990002004F80B000B9802
:10098000099AC0F80880C0E9002B7AE711264FF0D9
:10099000000857E72DE9F04F88460446D21D22F0A3
:1009A000070191B0D1E90001CDE90A0102F025F873
:1009B00002460B98C00F01D02D2007E02068810768
:1009C00001D52B2002E0202101EAC000032A099072
:1009D00001D0072A05DB03464146204600F0B4F962
:1009E0000BE12078800601D5E06900E00620B8F12F
:1009F000650F814606D0B8F1660F18D0B8F1670FC1
:100A000070D131E00020B9F1110F009001DB11230A
:100A100001E009F101030AAA01A90CA8FFF7E2FE0F
:100A2000DDE90C70002609F10105834647E001204D
:100A30004B4600904FF000470AAA01A90CA8FFF707
:100A4000D1FEDDE90DB00C995D46002610B909F123
:100A500001000D18B9EB050003D4C0F1FF3609F110
:100A60000105A5EB09002BE0B9F1010F01DA4FF008
:100A700001090020B9F1110F0090484601DD112352
:100A800000E003460AAA01A90CA8FFF7ABFEDDE9C6
:100A90000C704D4600268346207800070AD4AB45EB
:100AA00000DA5D4601A8012D04DD411911F8011C91
:100AB000302907D04F4502DA17F1040F04DA01207C
:100AC00082460FE06D1EEEE7002F02DCED1B3E4478
:100AD00003E0781CA84200DD7D1CB81B00F1010A70
:100AE0004FF000472078000703D4AA4501DB4FF000
:100AF000FF3A0021B7F1004F0DF143088DF8431084
:100B000024D002202B23002F01DA7F422D230A213B
:100B1000021EA0F1010000DC5FB197FBF1FC97FB26
:100B2000F1F201FB1C7C17460CF1300C08F801CDEA
:100B3000EEE7A8F1010003702188090501D54521E0
:100B400000E06521A0F1010800F8011C09980FA937
:100B5000A1EB0807FF1D00B10120411901EBEA706C
:100B6000A1693844081A401EA0612078C00602D44A
:100B70002046FFF7DFFB099828B1D4E9012190470F
:100B8000206A401C20622078C00622D52046FFF74C
:100B9000D1FB1EE0002E04DBB34502DD01A8805D21
:100BA00000E03020D4E901219047206A401C2062F7
:100BB000761CAAF101005FEA000A0AD100F07AF877
:100BC000C0680168405CD4E901219047206A401C5C
:100BD0002062281EA5F10105DCDC07E0D4E9012133
:100BE00018F8010B9047206A401C2062381EA7F1BC
:100BF0000107F3DC2046FFF7B3FB032011B041E609
:100C000001694A1C02610878704700B58FB0CDE9D0
:100C100001310021059105497944CDE903101146C0
:100C20006846FFF717FC0FB000BD0000E5FFFFFFAF
:100C30000A6802F8010B0A607047D1E900239A4262
:100C400002D2531C0B60107070470000074B70B548
:100C50000D467B44FFF7D9FF0446284600F026F9ED
:100C600010B14FF0FF3070BD204670BD0B1E00006C
:100C70004FF000020429C0F0128010F0030C3FF482
:100C8000B7ACCCF1040CBCF1020F18BF00F8012B7B
:100C9000A8BF20F8022BA1EB0C01FFF7A9BC5FEA6B
:100CA000C17C24BF00F8012B00F8012B48BF00F8DD
:100CB000012B704700487047B000002030B5B0F1FC
:100CC0000A024FEA900E71F100034EEA817EB0EB0A
:100CD0000E0061EB91014FEA101E4EEA017E10EB0F
:100CE0000E0041EB11114FEA102E4EEA016E10EB8F
:100CF0000E0041EB11214FEA104E4EEA014E10EB6F
:100D00000E0041EB1141401841F100014FEAD000C3
:100D100040EA41704FEAD10110EB80054FEA8104AF
:100D200044EA907444EB01046D1944EB0404521B33
:100D3000A3414FF0000348BF0A3200D530BD401C2C
:100D400041F1000130BD00002DE9F0411F4604468D
:100D500003260168072A01F4006004DB08B116A528
:100D600005E016A503E008B115A500E015A521F0E2
:100D700010002060A069C01EA0610FB1401EA061DC
:100D80002046FFF7D7FA4FB1D4E901213846904702
:100D9000206A401C2062C01C206206E0206AFAE73C
:100DA000D4E9012115F8010B9047761EF8D22046B0
:100DB000FFF7D6FABDE8F0814E414E006E616E003D
:100DC000494E4600696E66002DE9F0478146164699
:100DD0008AB0354878440DC88DE80D003248784413
:100DE000801C03AC0DC884E80D0041F69B3008441C
:100DF000372190FBF1F290FBF1F5A5F1800501FBA5
:100E000012041B3C02D56442012000E00020DFF800
:100E100098A080460027FA44AAF1BE0A0EE0E00737
:100E20000AD03246684607EB470101230AEB8101ED
:100E300000F043FB8DE8070064107F1C002CEED10E
:100E4000194F7F44AE3F19E0E80715D007EB0410B7
:100E50000DF1180A90E80E008AE80E00C068F04212
:100E600001D1981908903246012306A903A800F081
:100E700024FB03AB83E807006D10641C002DE3D155
:100E80004FF0010332466946B8F1000F03A802D0C3
:100E900000F0FEFA01E000F010FBC9E90001C9F81A
:100EA00008200AB0BDE8F087182B0000007B00F096
:100EB0008000704700487047900000207546FFF79B
:100EC000F9FFAE4605006946534620F00700854607
:100ED00018B020B5FFF7CEF9BDE820404FF000066E
:100EE0004FF000074FF000084FF0000B21F0070112
:100EF000AC46ACE8C009ACE8C009ACE8C009ACE855
:100F0000C0098D46704710B50446AFF300802046F7
:100F1000BDE81040FFF794B94FF0013C50F8042BA6
:100F200051F8043B9A4221D1A2EB0C03934313EAFC
:100F3000CC1317D150F8042B51F8043B9A4215D129
:100F4000A2EB0C03934313EACC130BD150F8042B00
:100F500051F8043B9A4209D1A2EB0C03934313EAE4
:100F6000CC13DBD04FF00000704700BFD01A01BA9D
:100F7000B1FA81F101F0180122FA01F0CB40C1F180
:100F80002001DBB2C0B2C01A2CFA01F3D11A91438E
:100F900011EAC311E6D170475FEA400C08BF91F037
:100FA000000F4FEA8C234FEAC12243EA51514FEA26
:100FB0001C5018BF00F5F0404FEA300018BF41F058
:100FC00000415FEA6C5C00F02980BCF1FF3F08BF84
:100FD00040F080407047130C06BF12044FF0100C15
:100FE0004FF0000C130E04BF12020CF1080C130F8B
:100FF00004BF12010CF1040C930F04BF92000CF11A
:10100000020CD30F04BF52000CF1010C11464FF03B
:101010000002A0F11F00A0EB0C00704711F0004F80
:1010200008BF704731F000413FF4D5AF0B0C06BF4D
:1010300009044FF0100C4FF0000C0B0E04BF090216
:101040000CF1080C0B0F04BF09010CF1040C8B0F01
:1010500004BF89000CF1020CCB0F04BF49000CF156
:10106000010CCCF12003A0EB0C0022FA03F302FAEE
:101070000CF241EA030100F10100704720F07F4CBF
:1010800080EA030023F07F47ACEB070303F57C53B2
:1010900000F0004003F1FF032DE980494FEA154BB2
:1010A00009B44FEA144325EA0B4E24EA03480FF231
:1010B000042606EB132749083E785FEA320203FB59
:1010C0000667C7F5000707FB06F64FEA54374FEAF5
:1010D000D64606F1020607FB066CCCF1005C4FEA2F
:1010E0001C472CEA074C07FB06F40CFB06F504EB47
:1010F00015464FEA961634BF00204FF000404FEAE5
:10110000D13706FB07FC4FEA1C4C0CFB0BF7D21B3C
:1011100003FB0CF761EB07010CFB0EF7B0EB07408C
:1011200072EB17420CFB08F734BFA2EB0742B2EB9D
:10113000074261EB17414FEA0C444FEA910706FB67
:1011400007FC4FEA1C4C0CFB0BF7B0EBC74072EBF3
:10115000573203FB0CF734BFA2EBC742B2EBC742D6
:1011600061EB57310CFB0EF7B0EBC70072EB577217
:101170000CFB08F734BFA2EBC702B2EBC70261EB6E
:101180005771039F4FEA816141EA921104EBCC044D
:101190004FEAD1374FEA826206FB07FC42EA90121F
:1011A0004FEA80604FEA1C4C0CFB0BF7D21B03FB91
:1011B0000CF761EB07010CFB0EF7B0EB074072EB8D
:1011C00017420CFB08F734BFA2EB0742B2EB074211
:1011D00061EB17414FEA8C554FEA910704EB9C24D1
:1011E00006FB07FC4FEA1C4C0CFB0BF7B0EBC740AF
:1011F00072EB573203FB0CF734BFA2EBC742B2EBE2
:10120000C74261EB57310CFB0EF7B0EBC70072EB36
:1012100057720CFB08F734BFA2EBC702B2EBC70250
:1012200061EB577115EB4C254FEA816141EA921150
:101230004FEA82624FEAD13742EA901206FB07FC7E
:1012400044F100044FEA80604FEA1C4C0CFB0BF7A2
:10125000D21B03FB0CF761EB07010CFB0EF7B0EBA5
:10126000074072EB17420CFB08F734BFA2EB0742B2
:10127000B2EB074261EB174115EB1C154FEA8131C8
:1012800041EA92414FEA823242EA90424FEA80308C
:101290004FEA0C7644F1000448EA03434EEA0B4857
:1012A0004FF0000EB2EB080C71EB030724BF62464F
:1012B00039464EEB0E0E4FF0000B001852414941DB
:1012C0004BEB0B0BB2EB080C71EB03077BF1000B44
:1012D00024BF624639464EEB0E0E4FF0000B00184D
:1012E000524149414BEB0B0BB2EB080C71EB03077E
:1012F0007BF1000B24BF624639464EEB0E0E51EADD
:10130000020718BF46F0010616EB0E7655F10002F3
:1013100054F1000103D5BDE88901BDE80088BDE8AE
:101320008901BDE80048B619524141EB0101A3F122
:101330000103704780807F7E7D7C7B7A7978777629
:1013400076757473727171706F6E6E6D6C6C6B6AA2
:101350006A69686867666665646463636261616040
:10136000605F5F5E5E5D5D5C5C5B5B5A5A595958BD
:101370005857575656555555545453535252525127
:10138000515050504F4F4F4E4E4D4D4D4C4C4C4B7D
:101390004B4B4A4A4A4949494848484747474746C4
:1013A0004646454545444444444343434342424200
:1013B00042414141002B9C4630D477002BD01CB5D4
:1013C0004FEA370703B44FF010004FF01001BAF1A5
:1013D000000F06D0BCF1000FDCBF40F0080040F069
:1013E00008014FF000000FBCBDE810400BF1010BED
:1013F000BBF1010F08BF5FEA170722BF12F101021C
:1014000011F101014FF0004143F1000300F00040F1
:1014100043EA00007047F9D35708D0E746EA06468A
:1014200013F1400F4FEA16461FDD13F1200FDFBF07
:1014300016430A46002120335B42BED0C3F1200789
:1014400046EA064602FA07F74FEA164646EA070654
:10145000C3F1200722FA03F201FA07F721FA03F198
:101460004FF0000342EA0702A7E746EA020646EA0F
:1014700006464FEA164646EA0106BCBF46EA06465D
:10148000360C4FF000034FF000024FF0000194E7DC
:101490002DE9804C9A46934670B491E8380007C80D
:1014A00031EA400C48BF34EA430C03D5FFF7E6FDB0
:1014B000FFF780FFF0BCBDE8008C2DE9804C9A4618
:1014C000934670B491E8380007C810F0804F08BF09
:1014D00013F0804F03D100F005F8FFF76BFFF0BC6D
:1014E000BDE8008C20F07F4780EA030023F07F4CAA
:1014F00007EB0C03A3F57C5300F00040A3F1FE03BF
:1015000092F0000F00F0B38095F0000F00F07780AC
:101510002DE901494FEA11404FEA144621EA0048FB
:1015200000FB06FC24EA064708FB06F607FB08F862
:1015300000FB07F718EB06484CEB164C4FEA124B32
:1015400018EB07484FEA15464CEB174022EA0B4EC2
:101550000BFB06FC25EA06470EFB06F607FB0EFE14
:101560000BFB07F71EEB064E4CEB164C4FF000063C
:101570001EEB074E4CEB174B18EB0B0840F100002D
:1015800018EB0E0B58EB000840F100008F1A4FF0DB
:1015900000013CBFC943661B14BFB5EB040C00211E
:1015A0003CBFC943F61B4FEA17444EEA8E0E27EAAA
:1015B00004454FEA1C4704FB07622CEA074C05FB75
:1015C00007F70CFB05F604FB0CFC16EB074642EB99
:1015D000174216EB0C4642EB1C421BEB060658EB7F
:1015E0000202414146EA9E0601D5BDE80189B619CD
:1015F000524141EB0101A3F10103BDE801894FEA2A
:1016000014454FEA114724EA054621EA074C05FB39
:1016100007F406FB07F70CFB06F105FB0CFC11EBCE
:10162000074144EB17444FEA124711EB0C4144EBDE
:101630001C4422EA074C05FB07F206FB07F70CFBEC
:1016400006F605FB0CFC16EB074642EB174216EBC1
:101650000C4642EB1C456A1854F1000148BF704724
:10166000B619524141EB0101A3F10103704795F016
:10167000000F37D04FEA11424FEA144721EA0246E1
:1016800024EA074C02FB07F106FB07F70CFB06F404
:1016900002FB0CFC14EB074441EB17414FEA1547E2
:1016A00014EB0C4441EB1C4125EA074C02FB07F507
:1016B00006FB07F70CFB06F602FB0CFC16EB0746D5
:1016C00045EB174516EB0C4645EB1C42121951F140
:1016D000000148BF7047B619524141EB0101A3F127
:1016E000010370474FEA14454FEA114724EA0546C3
:1016F00021EA074C05FB07F106FB07F70CFB06F296
:101700004FF0000605FB0CFC12EB074241EB1741C2
:1017100012EB0C4251EB1C4148BF7047921841EB51
:101720000101A3F101037047FEE70000F0B5064692
:10173000012187B0084600F003FF0121102000F0CE
:1017400017FF234F07220921384600F028F9072206
:101750000A21384600F023F902218DF815100024E3
:101760008DF8164001254FF4C0608DF81750049095
:101770008DF8141000F0D8FE25208DF818008DF893
:1017800019408DF81A408DF81B5006A800F09AFEFB
:1017900004A9384600F0B2F8ADF80440ADF80640B0
:1017A000ADF80840ADF80C400C200A4CADF80A002A
:1017B00000966946204601F0C1F80121204601F05B
:1017C00074F84021204601F06DF807B0F0BD00002C
:1017D000000002400010014010B5002400F01CFF82
:1017E00000F0F8F8641C0C2CF8DB00F015FF00F09A
:1017F000F1F805490860CA68801A0A6902444A601B
:101800004A691044886010BD040000207047401EE3
:10181000FDD270478000A0F1C0400029016802D0CD
:1018200041F0010101E0024A1140016070470000EF
:10183000FEFF0F0010B5D0E901121143D0E90323D8
:101840001A4311434269114382691143C26911432A
:10185000026A1143426A1143826A1143C26A114308
:10186000026B114302689200A2F1C04211608168CC
:10187000082907D101688900A1F1C0410A6842F036
:1018800040020A60416BD1E9002342EA03128B68EF
:101890008C891B0243EA04431A430B8A42EA03522F
:1018A0000B7D896942EA03620A4301688900A1F15C
:1018B000C0414A60C16AB1F5804F08D000686FF03E
:1018C00070418000A0F1C040C0F8041110BD816BD0
:1018D000D1E9002342EA03128B680C8A1B0243EA17
:1018E00004531A430B7D896942EA036200680A4384
:1018F0008000A0F1C040C0F8042110BDF0B5002365
:10190000012403270D6804FA03F21540954242D1E1
:10191000D0F800C05E0007FA06F52CEA050CC0F806
:1019200000C091F804C0D0F800E00CFA06FC4CEAC4
:101930000E0CC0F800C091F804C0BCF1010F02D039
:10194000BCF1020F1FD1D0F808C02CEA050CC0F87A
:1019500008C091F805C0D0F808E00CFA06FC4CEA83
:101960000E0CC0F808C0D0F804C02CEA020CC0F875
:1019700004C0426891F806C00CFA03FC1FFA8CFC04
:1019800042EA0C024260C268AA43C260CA79C568D2
:10199000B2402A43C2605B1C102BB3D3F0BD4B078F
:1019A000DB0E9A40C90810B500EB8100016A0F24D4
:1019B0009C40A1430162016A1143016210BD0246CD
:1019C000002012690A4200D001207047418370470D
:1019D000018370472DE9F041144EC11703460246BA
:1019E0000B25306056F82540844201DD204602E098
:1019F000944200DA2246E31841EBE47106EB8504D9
:101A000054F8044C46F825406D1EEBD1C417181A43
:101A100061EB0401801A61EBE2714FF00A024FF0B2
:101A20000003FEF73CFCBDE8F081000060000020F0
:101A300005490968054A32F81000014201D0012029
:101A4000704700207047000010040240C42D0008B9
:101A50000A214FF4784302A2142000F0E9BC0000F0
:101A6000486172644661756C7400000010B5224CC8
:101A7000207878B10020FFF7DBFFC0B10120FFF72D
:101A8000D7FFA0B10220FFF7D3FF80B90320FFF7F3
:101A9000CFFF60B10020FFF7CBFF50B30120FFF76D
:101AA000C7FF30B30220FFF7C3FFE0B121E01348C6
:101AB000FFF7ADFE00202070FFF7BAFF00284FF0BF
:101AC00001000FD0FFF7B4FF00284FF0020009D04B
:101AD000FFF7AEFF01284FF0030003D0FFF7A8FF88
:101AE00038B9042010BD0320FFF7A2FF08B1012080
:101AF0002070002010BD000040000020FFFF0F00FC
:101B00001CB50121022000F01BFD40F207400090AF
:101B100000208DF804008DF8070069460148FFF7A2
:101B2000EDFE1CBD000402402DE9FF4F203A8B461C
:101B30000546824602F0FF090024DFF868802BE0AA
:101B40000C2905D0184A02EB091100260F5D16E09A
:101B5000164A09EB490102EB8101F6E7F90701D0CA
:101B6000039A03E0417829B1B8F802205946284683
:101B700000F050FC6D1C7F08761CADB2F6B298F8F0
:101B800000104046B6EB510FE8D30BF10100641C86
:101B900055461FFA80FBE4B298F800108C42CFD370
:101BA000BDE8FF8F4800002048320008D42D00080F
:101BB000014A5070518070474800002030B50546FA
:101BC000002440F23F11204600F00EF84FF0C041D3
:101BD0002220088003484FF496310580641C8C4213
:101BE000FBD330BD000002600B4600B5014620204B
:101BF00000F030FC194621205DF804EB00F02ABC0F
:101C0000092820D2DFE800F01F05080B0E11141779
:101C10001A004FF4805113E041F2080110E041F244
:101C200010010DE041F218010AE04FF4815107E084
:101C300041F2280104E041F2300101E041F23801B3
:101C4000032000F007BC704700B5012197B008469B
:101C500000F082FC05200F9000200921CDE9100141
:101C600012901021CDE9020114901590139000906C
:101C7000019004900590069009020790CDE90801B3
:101C80000A900B900C900FA80D900E906846FFF7ED
:101C9000D1FD01210020FFF7BDFD17B000BD000000
:101CA0002DE9F05F00F01AFBFFF7CEFF052000F0F2
:101CB000C5FE002000F0A6FBA0F513414FF4807391
:101CC0004FF4E06641F2300A40F2022741F2B0756B
:101CD00040F2371B4FF4E85840F2023941F2180441
:101CE00020397CD0A0F51341253979D045F208443C
:101CF000A04276D10021084600F0ACFB1946012035
:101D000000F0A8FB3146022000F0A4FB514603205E
:101D100000F0A0FB0021042000F09CFB791D0820AE
:101D200000F098FB0021092000F094FB00210A201C
:101D300000F090FB00210C2000F08CFB00210D2016
:101D400000F088FB00210F2000F084FB79100720B1
:101D500000F080FB41F2B021102000F07BFB072156
:101D6000112000F077FB0121172000F073FB6420A5
:101D700000F064FE40F2BB11122000F06BFBB100DA
:101D8000132000F067FB192000F058FE19212920CC
:101D900000F060FB192000F051FE4FF481713020FB
:101DA00000F058FB192000F049FE40F62141312097
:101DB00000F050FB40F62231322000F04BFB42F2A3
:101DC0001061332000F046FB41F60B61342000F037
:101DD00041FB40F60421352000F03CFB02E0A7E087
:101DE00090E194E041F20171362000F033FB40F2C3
:101DF0001761372000F02EFB40F20531382000F04B
:101E000029FB40F60521392000F024FB40F604416F
:101E10003A2000F01FFB4FF440613B2000F01AFB1A
:101E20000C213C2000F016FB40F20C513D2000F04C
:101E300011FBB91C3E2000F00DFB79003F2000F0A3
:101E400009FB0021502000F005FBEF21512000F09C
:101E500001FB0021522000F0FDFA40F23F11532017
:101E600000F0F8FA4FF41C51602000F0F3FA012161
:101E7000612000F0EFFA00216A2000F0EBFA002167
:101E8000802000F0E7FA0021812000F0E3FA002131
:101E9000822000F0DFFA0021832000F0DBFA00212D
:101EA000842000F0D7FA0021852000F0D3FA102119
:101EB000902000F0CFFA0021922000F0CBFA40F2FF
:101EC0000311932000F0C6FA4FF40471952000F03E
:101ED000C1FA0021972000F0BDFA0021982000F0FF
:101EE000B9FA2146F02000F0B5FA0521F32000F000
:101EF000B1FA1F21F42000F0ADFA00215FF0F000EC
:101F000000F0A8FA40F27311072000F0A3FA4FF690
:101F1000FF742046FFF752FEEF491020087007209B
:101F2000FFF76EFE2146BDE8F05F0120FFF740BEDF
:101F30004FF40041E52000F08DFA0121002000F06F
:101F400089FA1946012000F085FA3146022000F096
:101F500081FA5146032000F07DFA0021042000F0B0
:101F600079FA3946082000F075FA0021092000F0BE
:101F700071FA00210A2000F06DFA00210B2000F018
:101F800069FA00210C2000F065FA00210F2000F012
:101F900061FA0021102000F05DFA0021112000F00C
:101FA00059FA0021122000F055FA0021132000F008
:101FB00051FA142000F042FD2946102000F04AFAA0
:101FC0005946112000F046FA052000F037FD40F296
:101FD0003911122000F03EFA052000F02FFD414695
:101FE000132000F037FA1321292000F033FA0520DE
:101FF00000F024FD0021202000F02CFA00212120F7
:1020000000F028FA0621302000F024FA40F20111F5
:10201000312000F01FFA0321322000F01BFA4FF4A8
:102020008371352000F016FA40F60231362000F0B8
:1020300011FA4946372000F00DFA40F207713820B6
:1020400000F008FA0721392000F004FA4FF4C061CB
:102050003C2000F0FFF940F20B213D2000F0FAF99E
:102060000021502000F0F6F9EF21512000F0F2F9A4
:102070000021522000F0EEF940F23F11532000F011
:10208000E9F94FF41C51602000F0E4F901216120CE
:1020900000F0E0F900216A2000F0DCF90021802046
:1020A00000F0D8F90021812000F0D4F9002182202D
:1020B00000F0D0F90021832000F0CCF90021842029
:1020C00000F0C8F90021852000F0C4F9102190200B
:1020D00000F0C0F90021922000F0BCF90321932008
:1020E00000F0B8F94FF48871952000F0B3F90021A1
:1020F000972000F0AFF90021982000F0ABF92146BD
:102100000320FDE60121002000F0A4F9194601207A
:1021100000F0A0F93146022000F09CF9214603208E
:1021200000F098F90021042000F094F939460820C5
:1021300000F090F90021092000F08CF900210A201C
:1021400000F088F900210C2000F084F900210D2016
:1021500000F080F900210F2000F07CF90021102010
:1021600000F078F90021112000F074F9002112200C
:1021700000F070F90021132000F06CF9142000F039
:102180005DFC2946102000F065F95946112000F049
:1021900061F9052000F052FC40F23911122000F0E4
:1021A00059F9052000F04AFC4146132000F052F98D
:1021B0001321292000F04EF9052000F03FFC0021FA
:1021C000202000F047F90021212000F043F90721E9
:1021D000302000F03FF94946312000F03BF940F251
:1021E00005131946322000F035F940F2062529463C
:1021F000352000F02FF940F608063146362000F071
:1022000029F92946372000F025F940F204513820F9
:1022100000F020F90721392000F01CF919463C2074
:1022200000F018F931463D2000F014F9002150204B
:1022300000F010F9EF21512000F00CF9002152209C
:1022400000F008F940F23F11532000F003F94FF479
:102250002741602000F0FEF80121612000F0FAF82B
:1022600000216A2000F0F6F80021802000F0F2F84A
:102270000021812000F0EEF80021822000F0EAF831
:102280000021832000F0E6F80021842000F0E2F82D
:102290000021852000F0DEF81021902000F0DAF80F
:1022A0000021922000F0D6F80321932000F0D2F80C
:1022B0004FF48871952000F0CDF80021972000F0B0
:1022C000C9F80021982000F0C5F82146032000F04D
:1022D000C1F840F2331117E6480000207CB5012117
:1022E000182000F02DF94CF23370009002208DF888
:1022F00004008DF8050000208DF806003F4C8DF895
:10230000070069462046FFF7F9FA0C220021204613
:10231000FFF745FB0C2201212046FFF740FB0C2272
:1023200004212046FFF73BFB0C2205212046FFF746
:1023300036FB0C2208212046FFF731FB0C22092135
:102340002046FFF72CFB0C220A212046FFF727FB33
:102350000C220E212046FFF722FB0C220F212046E3
:10236000FFF71DFB4FF68070254D0090694628460B
:10237000FFF7C4FA0C2207212846FFF710FB0C22B6
:1023800008212846FFF70BFB0C2209212846FFF7FE
:1023900006FB0C220A212846FFF701FB0C220B2129
:1023A0002846FFF7FCFA0C2211462846FFF7F7FAF9
:1023B0000C220D212846FFF7F2FA0C220E212846A6
:1023C000FFF7EDFA0C220F212846FFF7E8FAE01498
:1023D000009069462046FFF791FA0C220B21204617
:1023E000FFF7DDFA8020009069462046FFF786FA65
:1023F0000C2207212046FFF7D2FA7CBD000C0240D8
:10240000001002404FF0C04108800148008870472A
:102410000000026010B51446FFF7E6FB4FF0C04124
:10242000222008800148048010BD000000000260E6
:10243000F0B51E4614460F46054607E033463946BA
:102440002846FFF771FB0835ADB2641C2278002ADC
:10245000F4D1F0BD4FF0C0421080014801807047B8
:10246000000002607CB50121084600F069F80121F6
:10247000042000F065F801258DF8045000240820A0
:102480008DF80640032600908DF805608DF8074012
:1024900069460948FFF732FA8DF8045042F20C0001
:1024A0008DF8064000908DF805608DF8074069466C
:1024B0000248FFF723FA7CBD0000024000080240FA
:1024C000FEE7704730B50F22C47801780123FCB1D4
:1024D000144C246801F1E02104F4E064C4F5E064E4
:1024E000C4F30724C4F10405E2404478AC40857885
:1024F000154025432A0181F80024007800F01F01CF
:102500008B404009800000F1E020C0F8003130BD70
:1025100001F01F0083404809800000F1E020C0F86E
:10252000803130BD0CED00E00249084302490860EB
:10253000704700000000FA050CED00E07047000055
:10254000044A0029116801D0014300E08143116071
:102550007047000030380240044A0029116801D059
:10256000014300E0814311607047000038380240A9
:10257000044A0029116801D0014300E08143116041
:10258000704700004438024070B5204A1168204C62
:1025900011F00C0104D06610042903D0082903D0DF
:1025A00004601BE0066019E01849091F0B68C3F3BB
:1025B00080550B6803F03F0315B1B6FBF3F301E060
:1025C000B4FBF3F30C680968C4F388146343C1F3E4
:1025D0000141491C4900B3FBF1F1016011680F236F
:1025E00003EA11110B4B5C5C0168E1404160146827
:1025F000072505EA94241C5D21FA04F4846012681E
:1026000005EA52329A5CD140C16070BD0838024080
:102610000024F4005000002070B5164E0024402124
:102620003046FFF7D3F980213046FFF7C8F900287C
:10263000F9D1002540213046FFF7CAF96400402156
:102640003046FFF7C3F980213046FFF7B8F908B1EB
:1026500044F001046D1C182DECDB40213046FFF7DF
:10266000B7F984F4000440213046FFF7AFF9204663
:1026700070BD000000080240704700007CB50121D9
:102680000420FFF75DFF8020002400908DF80440B7
:1026900003208DF80500094D8DF80740694628464E
:1026A000FFF72CF94020009001208DF804008DF8F0
:1026B000074069462846FFF721F97CBD0008024023
:1026C0000CB50022314801920092016841F480313A
:1026D00001604FF4A043016801F4003100910199B9
:1026E000491C0191009911B901999942F3D10168EE
:1026F0008B03274947D501220092254A38321368B7
:1027000043F080531360234A136843F4404313603B
:102710000A680A600A6842F400420A600A6842F4E1
:10272000A0520A601C4A1388528843EA82120B1F87
:1027300042F0E8621A60026842F080720260026849
:102740009201FCD5154B40F205621A600A6822F02E
:1027500003020A600A6842F002020A600A68C2F3D1
:102760008102022AFAD10A6822F400020A60084AA9
:102770000B497C321160016841F0806101600168A1
:102780000901FCD50CBD0092EDE7000000380240C5
:10279000083802400070004028000020003C024041
:1027A00080400030401EB0F1807F01D3012070478F
:1027B0004FF0E0214861054AF02082F8140D002016
:1027C0008861072008610020704700000FE000E0EA
:1027D0000448016809B1491E0160034801680A31D3
:1027E000016070474400002000000020124810B52E
:1027F000016841F4700101601048016841F0010175
:1028000001600E4A00210832116002680C4B1A4028
:102810000260031D0B4A1A60026822F480220260E3
:1028200006480C300160FFF74BFF03494FF0006092
:102830008039086010BD000088ED00E000380240DB
:10284000FFFFF6FE1030002470B5134C40F2255106
:10285000204600F03BF878B1204600F0C5F80F495B
:102860000122482802D0532806D104E00020086045
:102870000B48026000E00A6040F2277529462046B6
:1028800000F024F8002806D029462046BDE8704014
:10289000002200F03AB870BD001001401C0000207A
:1028A00020000020C943018070470029818902D09F
:1028B00041F4005101E021F400518181704702464A
:1028C000002012880A4200D00120704730B501F084
:1028D0001F0201240025C1F3421304FA02F2012B66
:1028E0000FD0022B0FD0838A4FEA112100881342A8
:1028F00004FA01F400EA040001D000B101252846E1
:1029000030BD8389F0E7038AEEE710B5C1F34213C7
:1029100001F01F040121A140012B07D0022B07D099
:102920001430002A026805D00A4304E00C30F8E7AE
:102930001030F6E78A43026010BD00007FB5044600
:10294000008A0D4620F44051E88808432082A0897F
:1029500041F20C618843A9882A8911436A8902439C
:102960001143A181A08A20F44071A8890843A08264
:102970006846FFF709FE1A48844202D0194884428B
:1029800001D1039800E00298A189090400EBC0017D
:1029900001EB0010296801D5490000E08900B0FB77
:1029A000F1F26420B2FBF0F109010B096FF0180598
:1029B0006B4302EB8302A3891D044FF0320306D55B
:1029C00003EBC202B2FBF0F000F0070005E003EBFE
:1029D0000212B2FBF0F000F00F00084320817FBD2F
:1029E00000100140001401408088C0F308007047C7
:1029F000C1F3080181807047FEE703B401984100EC
:102A0000009850EAC12018BF04204A0D18BF40F0BA
:102A1000010040F2FF72B2EB515F08BF40F00200CC
:102A2000012808BF052002B0704730380A2801D2BB
:102A300001207047002070477047000010B5064C19
:102A400020600648FFF7AEFE20680028FCD14FF05A
:102A5000E021086110BD0000440000204090020009
:102A600070B5074D0446C1B22846FFF7C1FF4021AB
:102A70002846FFF724FF0028F9D0204670BD00004B
:102A800000100140C2B04FF4807102A8FDF7AEFD06
:102A9000FFF736F8FFF7E6FCFFF7F0FDFFF700F968
:102AA000FFF7BAFDFEF798FE4FF4E130FEF73EFE69
:102AB0001F234EA20A214020FFF7BAFC4E4C4FF4D0
:102AC000784700BFFEF7D2FF0646FFF7A5FD804618
:102AD000FEF780FF0546D4E90010CDE900012A4643
:102AE000414646A0A368FDF7FFFB012E2AD0022E27
:102AF0002AD0032E33D0042E3CD0A06900285CD00D
:102B00002B4647A2FF2102A8FDF7FAFB1F2302AACA
:102B10005A211820FFF78CFCD4E90110884239D0E3
:102B20002268AA1A00EE102A401AF8EEC00A00EE37
:102B3000100AB8EEC01A80EE810ADFED3E0A20EEE0
:102B4000200A29E0E56018E02B463BA2FF2102A8FD
:102B50006560FDF7D5FB3B4602AA362116E02B4601
:102B60003AA2FF2102A8A560FDF7CAFB3B4602AAD4
:102B700048210BE04046FEF72FFE39A2FF2102A8B4
:102B80002368FDF7BDFB3B4602AA24211820FFF76E
:102B90004FFC97E79FED370A84ED080A10EE100A04
:102BA00000F094F8CDE9000133A2FF2102A8FDF75F
:102BB000A7FB1F2302AA6C21E8E7E069002881D067
:102BC0002022FF2102A8FDF709FD00258DF80751FD
:102BD0001F2302AA5A211820FFF72AFC1F2302AA4A
:102BE0006C211820FFF724FCE5616BE753544D334B
:102BF00032205363616C650004000020574549474B
:102C000048543A253038582C253038582C2530383F
:102C1000582C253038582C253038580A0000000030
:102C200064617461203D202538642020202020200C
:102C3000202000000000C84331303067203D2025AF
:102C400038642020202020202020000035303067EC
:102C5000203D202538642020202020202020000036
:102C600030303067203D202538642020202020206F
:102C70002020000000000000776569676874203D2F
:102C80002025342E346C6667202020202020202030
:102C90000000000010B500290AD00878002807D0ED
:102CA00005487844FEF738F9002801D0002010BD0F
:102CB0000248784410BD0000860C00007E0C000025
:102CC0000808A0F500114FEA3101704743004FEAB0
:102CD000D30C4FEA3C0C43401FBF40070CF160513E
:102CE00013F0FE4F70471CF0006F03D100200CF072
:102CF000004170470CF0004343EA507010B540EAC1
:102D0000CC0000F00EF800BF000000924FEA000176
:102D1000FFF7D6BF4FF000414FF00000A1F50021B2
:102D200070470EF1020E2EF0030E5EF8044B2442A3
:102D300004D44FEA4102B2F17F4F11D84FEA400369
:102D4000B3F17F4F0CD80ED14FEAD07CB2F17F4F58
:102D50000CEB4C0C0CF1020C08BF4CEBD17C04E0EA
:102D60004FF0080C01E04FEAD17C0CEB4C0324FA45
:102D700003F404F00704B4F1040C06D20EEB840C47
:102D8000BDE810404CF0010C6047DFE80CF007088C
:102D900002024FF00040A0F5800010BD084642003E
:102DA00018BFD2F1807288BF00F0004010BD4FF014
:102DB0004070E1EE100A7047FDF7ECBD0001020A19
:102DC00006070828010002000400000401000200B8
:102DD00004000004000000000000000000000000EB
:102DE00000000404040404040004000000140A0A9F
:102DF0000000000000000000000014143F140A3F0F
:102E00000A0A000000041E1505060C14150F040024
:102E1000000012150D0A142C2A1200000000040AEA
:102E20000A1E15150936000000020201000000000C
:102E30000000000000201008080808080810200002
:102E40000002040808080808080402000000000442
:102E5000150E0E150400000000000404041F0404F5
:102E60000400000000000000000000000002020159
:102E700000000000001F0000000000000000000033
:102E8000000000000002000000100808080404020E
:102E90000202010000000E1111111111110E0000AB
:102EA0000000040604040404040E000000000E11D7
:102EB00011080402011F000000000E11100C101078
:102EC000110E00000000080C0A0A091E0818000074
:102ED00000001F01010F1010110E000000000E096C
:102EE000010F1111110E000000001F090804040455
:102EF0000404000000000E11110E1111110E00004B
:102F000000000E1111111E10120E00000000000032
:102F100004000000000400000000000000040000A5
:102F2000000404000020100804020408102000001F
:102F3000000000001F00001F000000000002040845
:102F4000102010080402000000000E1111080404F3
:102F50000004000000000E111915151D011E0000CF
:102F6000000004040C0A0A1E1233000000000F12B5
:102F7000120E1212120F000000001E1101010101B9
:102F8000110E000000000F1212121212120F000098
:102F900000001F120A0E0A02121F000000001F127A
:102FA0000A0E0A020207000000001C12010139117A
:102FB000120C000000003312121E12121233000015
:102FC00000001F0404040404041F000000003E0865
:102FD0000808080808090700000037120A060A0A4C
:102FE000123700000000070202020202223F000026
:102FF00000001B1B1B1B15151515000000003B12C4
:1030000016161A1A1217000000000E1111111111D4
:10301000110E000000000F12120E02020207000043
:1030200000000E1111111117190E180000000F12D7
:10303000120E0A121237000000001E1101060810BD
:10304000110F000000001F1504040404040E00000A
:103050000000331212121212120C00000000331280
:10306000120A0A0C0404000000001515150E0A0AC5
:103070000A0A000000001B0A0A04040A0A1B0000D6
:1030800000001B0A0A040404040E000000001F09CB
:1030900008040402121F0000001C040404040404B9
:1030A00004041C00000202020404080808100000C6
:1030B000000E08080808080808080E0000040A00A6
:1030C0000000000000000000000000000000000000
:1030D0000000003F000400000000000000000000AD
:1030E00000000000000C121C123C00000000030253
:1030F000020E1212120E000000000000001C12024C
:10310000021C000000001810101C1212123C0000DB
:1031100000000000000C121E021C00000000380419
:10312000041E0404041E000000000000003C120CF9
:10313000021E221C00000302020E121212370000AF
:103140000000040000060404040E00000000080053
:10315000000C08080808080700000302023A0A0EDB
:10316000123700000000070404040404041F0000D8
:1031700000000000000F15151515000000000000EC
:10318000000F12121237000000000000000C121293
:10319000120C000000000000000F1212120E0207B5
:1031A00000000000001C1212121C10380000000069
:1031B000001B06020207000000000000001E020CB7
:1031C000101E000000000004040E04040418000097
:1031D00000000000001B1212123C00000000000062
:1031E0000037120A0C040000000000000015150E44
:1031F0000A0A000000000000001B0A040A1B00006D
:10320000000000000037120A0C0404030000000054
:10321000001E0804041E000000180808080408081E
:103220000808180008080808080808080808080816
:10323000000604040408040404040600022518001F
:10324000000000000000000000000000000000007E
:103250000000000000000000000000080808080846
:10326000080800001818000000486C241200000034
:1032700000000000000000000000002424247F1251
:1032800012127F12121200000000081C2A2A0A0CD7
:103290001828282A2A1C08080000002225151515C0
:1032A0002A585454542200000000000C1212120A32
:1032B00076252911916E0000000606040300000027
:1032C0000000000000000000004020101008080866
:1032D0000808081010204000000204080810101010
:1032E00010101008080402000000000008086B1C01
:1032F0001C6B080800000000000000000808080817
:103300007F0808080800000000000000000000001E
:10331000000000000606040300000000000000009A
:10332000FE0000000000000000000000000000009F
:103330000000000006060000000080404020201031
:10334000100808040402020000000018244242424F
:103350004242424224180000000000080E080808FB
:1033600008080808083E00000000003C42424220D5
:1033700020100804427E00000000003C4242201859
:1033800020404042221C000000000020302824245D
:1033900022227E20207800000000007E0202021A15
:1033A00026404042221C0000000000382402021A7D
:1033B00026424242241800000000007E2222101003
:1033C00008080808080800000000003C42424224A7
:1033D00018244242423C00000000001824424242AD
:1033E00064584040241C0000000000000000181831
:1033F0000000000018180000000000000000000895
:10340000000000000008080400000040201008042C
:1034100002040810204000000000000000007F00AF
:1034200000007F00000000000000000204081020DF
:1034300040201008040200000000003C42424640C8
:1034400020101000181800000000001C225A5555CA
:1034500055552D42221C00000000000808181414C5
:10346000243C224242E700000000001F2222221ECC
:1034700022424242221F00000000007C4242010121
:1034800001010142221C00000000001F22424242B2
:1034900042424242221F00000000003F4212121E20
:1034A00012120242423F00000000003F4212121E70
:1034B00012120202020700000000003C2222010159
:1034C00001712122221C0000000000E7424242421A
:1034D0007E42424242E700000000003E0808080821
:1034E00008080808083E00000000007C10101010BA
:1034F000101010101010110F0000007722120A0E89
:103500000A121222227700000000000702020202C3
:1035100002020202427F0000000000773636363693
:103520002A2A2A2A2A6B0000000000E346464A4A5B
:1035300052525262624700000000001C2241414189
:1035400041414141221C00000000003F42424242F2
:103550003E020202020700000000001C224141411D
:1035600041414D53321C60000000003F4242423E48
:103570001212222242C700000000007C42420204D4
:1035800018204042423E00000000007F4908080821
:1035900008080808081C0000000000E742424242F8
:1035A00042424242423C0000000000E742422224E4
:1035B00024141418080800000000006B4949494908
:1035C0005555362222220000000000E7422424182C
:1035D0001818242442E70000000000772222141467
:1035E00008080808081C00000000007E21201010B8
:1035F00008040442423F0000007808080808080850
:1036000008080808080878000000020204040808F6
:103610000810102020204040001E10101010101024
:103620001010101010101E000038440000000000A0
:10363000000000000000000000000000000000008A
:1036400000000000000000FF00060800000000006D
:103650000000000000000000000000000000003C2E
:103660004278444242FC0000000000030202021AB9
:1036700026424242261A00000000000000000038E6
:1036800044020202443800000000006040404078DC
:103690004442424264D80000000000000000003CA8
:1036A000427E0202423C0000000000F08808087ED2
:1036B00008080808083E0000000000000000007C28
:1036C00022221C023C42423C000000030202023A59
:1036D0004642424242E700000000000C0C00000E8F
:1036E00008080808083E00000000003030000038DC
:1036F000202020202020221E00000003020202724F
:10370000120A1612227700000000000E08080808AE
:1037100008080808083E0000000000000000007FC4
:103720009292929292B70000000000000000003BCD
:103730004642424242E70000000000000000003C18
:1037400042424242423C0000000000000000001BD8
:1037500026424242221E02070000000000000078BC
:1037600044424242447840E00000000000000077FC
:103770004C040404041F0000000000000000007C52
:1037800042023C40423E0000000000000008083EAB
:10379000080808080830000000000000000000636E
:1037A0004242424262DC000000000000000000E7EC
:1037B000422424140808000000000000000000EB70
:1037C0004949555522220000000000000000007603
:1037D00024181818246E000000000000000000E704
:1037E0004224241418080807000000000000007E8E
:1037F00022100808447E000000C020202020201055
:10380000202020202020C0001010101010101010B8
:1038100010101010101010100006080808080810EA
:1038200008080808080806000C32C2000000000062
:1038300000000000000000003031323334353637EC
:1038400038394142434445464030580030313233E4
:1038500034353637383961626364656640307800E4
:103860000400000800000000000000020001000049
:103870001000000002400000000000A00000000056
:1038800005400000000000C8000000000C400000DF
:103890000000409C00000000194000000020BCBE59
:1038A0000000000034400000BFC91B8E000000046F
:1038B000B5400000504BCFD06607E2CF01000000BA
:1038C0006C4100003E8251AADFEEA73401000000E7
:1038D000D9420000DCB5A0E23A301F97FFFFFFFF9E
:1038E000B4450000FD25A0C8E9A3C14FFFFFFFFFBD
:1038F000FF3F00000000008000000000FF3F0000CC
:103900000000008000000000443900080000002092
:1039100060000000C4010008A43900086000002015
:1039200090060000E00100081C00000043000000B9
:10393000F8FFFFFF0C0000000E0000000F00000069
:103940002E00000000000000000000000000000049
:10395000000000000B708100799782000D33870012
:1039600001000000000000000000000008005001FD
:10397000007A030A000000000000000001020304B6
:103980000607080901000000000000000000000018
:103990000000000000000000010203040102030413
:0439A0000607080905
:040000050800018965
:00000001FF
